:020000040800F2
:10000000A80C00209D01000851450008A1340008FB
:10001000F13F0008DD0900089155000800000000CC
:10002000000000000000000000000000A1470008E0
:10003000610E000800000000BB4600084D4E00089D
:10004000C1010008C1010008C1010008C101000888
:10005000C1010008C1010008C1010008C101000878
:10006000C1010008C1010008C1010008C101000868
:10007000C1010008C1010008A50D0008C101000868
:10008000C1010008C101000881080008C101000881
:10009000C1010008C1010008C1010008C101000838
:1000A000C1010008C1010008C1010008C101000828
:1000B000614E0008C1010008C1010008C10100082B
:1000C000C1010008C1010008C1010008C101000808
:1000D000C1010008C1010008C10100084D55000818
:1000E000C1010008C1010008C1010008C1010008E8
:1000F0006D4E0008C1010008C1010008C1010008DF
:10010000C1010008C1010008C1010008C1010008C7
:10011000C1010008C1010008C1010008C1010008B7
:10012000C1010008C1010008B10D0008C1010008AB
:10013000C1010008C1010008C1010008C101000897
:10014000C1010008C1010008C1010008C101000887
:10015000C1010008C1010008C1010008C101000877
:10016000C1010008C1010008C1010008C101000867
:10017000C1010008C1010008C10100080000000021
:10018000C1010008C1010008DFF80CD000F00CFB31
:1001900000480047B1A70008A80C002009480168E2
:1001A00041F4700101600848804708480047FEE7B5
:1001B000FEE7FEE7FEE7FEE7FEE7FEE7FEE7FEE717
:1001C000FEE7000088ED00E0514E000889010008BC
:1001D0002DE9F05F0546002092469B46884606467C
:1001E000814640241BE0284641464746224600F00F
:1001F000AEF953465A46C01A914110D311461846DB
:10020000224600F095F92D1A67EB01084F46224669
:100210000120002100F08CF917EB00094E41201E4F
:10022000A4F10104DFDC484631462A464346BDE8D6
:10023000F09FD2B201E000F8012B491EFBD27047BB
:100240000022F6E710B513460A4604461946FFF7A2
:10025000F0FF204610BD10B5002200E0521C835C68
:100260008C5CA34201D1002BF8D1D8B2E1B2401A84
:1002700010BD2DE9FE4F81EA030404F0004421F093
:10028000004100944FF0000B23F0004350EA0104BA
:100290005ED052EA03045BD0C3F30A54C1F30A559B
:1002A0002C44A4F2F3340194A0FB0254C1F31301D3
:1002B00041F48011C3F3130343F4801301FB0244A0
:1002C00000FB034E840A970A44EA815447EA8357A5
:1002D000A4FB076802958D0A05FB07854FEA932C5E
:1002E00004FB0C542705029D4FEA065847EA1637CF
:1002F000B5EB08056EEB070C870E920E47EA8117E7
:1003000042EA8312A7FB0201B6EB0B0164EB000487
:100310002B0D43EA0C335E1844EB1C50DA46514671
:10032000E7FB0201C5F313044FEA0B3343EA14530E
:100330004FEA0432019C43EA0603A4F10C04029440
:10034000009CCDE900B400F021F903B0BDE8F08FC6
:1003500000200146F9E72DE9F04D81EA030404F09D
:10036000004B21F0004514464FF0000A23F00041F5
:1003700050EA050220D054EA01021DD0C5F30A5705
:100380000246C5F31303C1F31300C1F30A5640F448
:10039000801543F48013A7EB0608101BD64608F21D
:1003A000FD3873EB050002D308F1010801E0921853
:1003B0005B41B8F1000F03DA00200146BDE8F08D83
:1003C00000204FF48011064684460EE0171B73EBA5
:1003D000050705D3121B63EB050306434CEA010C2A
:1003E00049084FEA300092185B4150EA0107EDD10D
:1003F00052EA030012D082EA040083EA05010843AE
:1004000005D0101BAB4106D20122002306E00022DA
:100410004FF0004302E06FF0010253101AEB0600A8
:100420004CEB085110EB0A0041EB0B01BDE8F04D1D
:1004300000F09DB80EB5C10F80EAE0700844CA070D
:10044000002140F233438DE80E000A460B4600F0CF
:100450009DF803B000BD0EB540F23341029100217A
:10046000CDE900110A460B4600F090F803B000BD3C
:10047000C1F30A5210B5C1F3130140F2FF3341F446
:1004800080119A4201DA002010BD40F233439A42B3
:10049000A2F2334203DC524200F059F810BD904002
:1004A00010BD000030B5041E71F1000404DB4FF0F4
:1004B0000044404264EB0101141E73F1000405DBAB
:1004C0001C464FF00043524263EB04038B4208BFCB
:1004D000824230BD30B5041E71F1000404DB4FF0E0
:1004E0000044404264EB0101141E73F1000405DB7B
:1004F0001C464FF00043524263EB0403994208BF8D
:10050000904230BD30B50B46014600202022012428
:1005100009E021FA02F59D4205D303FA02F5491BD1
:1005200004FA02F52844151EA2F10102F1DC30BDE7
:10053000202A04DB203A00FA02F1002070479140A3
:10054000C2F1200320FA03F3194390407047202A98
:1005500004DB203A21FA02F00021704721FA02F36D
:10056000D040C2F12002914008431946704710B5AF
:10057000141E73F1000408DA401C41F100019218C6
:100580005B411A4301D120F0010010BD2DE9F04D6F
:1005900092469B4611B1B1FA81F202E0B0FA80F2C4
:1005A00020329046FFF7C4FF04460F4640EA0A0097
:1005B00041EA0B0153465A46084313D0114653EA09
:1005C000010019D0C8F140025046FFF7C0FF0546B0
:1005D0000E46504659464246FFF7AAFF084305D04B
:1005E000012004E020463946BDE8F08D0020054397
:1005F00046EAE0762C4337430A986305E40AA0EB09
:1006000008000022FD0A44EA47540A3002D50020BF
:100610000146E9E7010510196941DDE908450019BE
:100620006941BDE8F04DA2E72DE9FE4F804681EA21
:100630000300C00F0C46009021F0004123F000455C
:10064000B8EB0200A94105D24046214690461C461F
:100650000B46024623F00040104347D0270DC7F356
:100660000A00C3F30A510290401A019040286BDA45
:10067000C3F3130040F4801B0098924620B100237E
:10068000D2EB030A63EB0B0B01985946C0F1400211
:100690005046FFF74DFF06460D4650465946019A13
:1006A00000F094F810EB08006141002487EA115231
:1006B00084EAE7731A4340D0009A62B3019A012A90
:1006C0004FEA075215DC001B61EB02014FF00042BC
:1006D00002EA0752CDE90042001C41F58011324682
:1006E0002B46FFF753FF03B0BDE8F08F404621468D
:1006F000F9E7001B61EB0201001C41F580130018B3
:100700005B412018A2F5001747EB030140EAD570C2
:10071000B6196D4111E06D084FEA360645EAC0751D
:100720004FEA0752001B61EB0201001C41F58011EA
:1007300049084FEA30000019514132462B4603B0B8
:10074000BDE8F04FFFF713BF0098012240000023DF
:10075000D0EB020263EBE073009821464FEAE074AD
:10076000B8EB000061EB0401E9E783F000435BE7CD
:1007700081F0004158E7C1F30A52C1F3130140F27E
:10078000FF3341F480119A4202DA0020014670479B
:1007900040F233439A42A2F2334202DC5242FFF764
:1007A000D6BEFFF7C5BE0000064C074D06E0E06868
:1007B00040F0010394E8070098471034AC42F6D3A8
:1007C000FFF7E6FC70F2000890F20008202A06DB32
:1007D000CB17203A41FA02F043EAE07306E041FA0F
:1007E00002F3D040C2F120029140084319467047FD
:1007F00010B50146806B026C12F0500F05D0026CF0
:10080000D20626D500F022FE10BD016C41F4007125
:10081000016401688A6812F0405F17D1027EAAB9AC
:10082000CA6A12F4700F02D08A6852050ED44A6860
:1008300022F020024A60016C21F480710164016C95
:10084000C90403D4016C41F00101016400F0FCFD16
:1008500010BD806BC26CBDE810400846104710B553
:10086000806B40210164416C41F00401416400F05F
:10087000EDFD10BD10B5806B00F0E7FD10BD000070
:10088000014800F0E4BD000090010020464910B589
:100890004A6822F440324A604A6843681A434A6010
:1008A00001684A6822F480724A6001684A680369F4
:1008B00042EA03224A6001684A6822F040724A60B4
:1008C00001684A6883681A434A6001688A6822F4AA
:1008D00000628A6001688A68C3681A438A60816A14
:1008E0006FF07062D14201688A6822F070628A609B
:1008F00001688A680CD0836A1A438A6001688A6832
:1009000022F040528A6001688A68C36A1A4301E093
:1009100022F040528A6001688A6822F002028A60EE
:1009200001688A68037E42EA43028A6090F82010D8
:10093000002901684A680FD042F400624A600168E9
:100940004A6822F460424A6001684A68174C436A68
:1009500004EB43331A4301E022F400624A60016869
:10096000CA6A22F47002CA620168CA6A838B104C98
:1009700004EB03531A43CA6201688A6822F40072C6
:100980008A6001688A6890F8303042EA43228A60BF
:1009900001688A6822F480628A6001688A68406916
:1009A00042EA8020886010BD0023014000E0FFFF84
:1009B0000000F0FF90ED001AB4EEC01AF1EE10FA4C
:1009C00002D9B0EE410A01E080ED000AB4EEE00A7F
:1009D000F1EE10FA01DBC0ED000A7047FEE7428835
:1009E000002192B1B2F5806F15D2826981681144FD
:1009F0008160026A016911440161426941681144E0
:100A000041604188491C41807047417081600161AB
:100A100041604180E9E78268921282600269921225
:100A200002614268921200EE102A4260D0ED0F0A75
:100A3000B8EEC00A20EE200A80ED0D0A41800121A7
:100A40004170704790ED050AD0ED0F0AB8EEC00A6C
:100A500020EE200A80ED0C0AD0ED0D0A30EE600A7F
:100A600080ED0E0A704782688169D0ED100A891AFC
:100A700090F90020514300EE101AB8EEC00A20EEA3
:100A8000200A80ED090A0369016AB1EE400AC91A19
:100A9000514301EE101AB8EEC11A61EE200AC0ED02
:100AA0000B0A30EE600A80ED0A0A704730B5DFEDC0
:100AB000790A90ED100AD0ED0F2ADFED771AB6EE25
:100AC000002A22EEA11A00EE421A9FED743AB5EE0A
:100AD000C00A22EE833A00EE423AF1EE10FA01DD4E
:100AE000012200E00022B5EEC01AF1EE10FA01DD9D
:100AF000012100E00021B5EEC03AF1EE10FA01DD6F
:100B0000012300E000239B0003EB41018C18B0F8A7
:100B1000481001EE101AB8EE411A9FED613A072C09
:100B200021EE031A90ED113A61EE003A83EE831A3A
:100B3000F7EE083A22EEA34A03EE901AF8EE633A73
:100B400024EE234A60EE213A00EE101AB8EE400A75
:100B500003EE804ABFEE080A62EE802A00EE101A09
:100B6000C4EE031AB8EE400A62EE802A00EE101AB4
:100B7000B8EE400A43EE802A82EE830A21D2DFE8F3
:100B800004F020091B04130E1600F1EE400AB0EE2B
:100B9000410A18E0F0EE400AB0EE610A13E0F0EE10
:100BA000410AB1EE610A0EE0F1EE410A0BE0F1EE0E
:100BB000610AB1EE400A06E0F0EE610AB1EE410AC8
:100BC00001E0B0EE600AB0F84A2030EE801A01EE83
:100BD000902AF8EE611AB4EEE11AF1EE10FA0FDD88
:100BE00001EE902AF8EE611A61EEA01AC1EE810AB8
:100BF00001EE902AF8EE611A61EE801A81EE810A08
:100C000001EE101AF5EE001A072CB8EE411A31EE7B
:100C1000601A31EE401A21EE211ABCEEC11A11EE13
:100C2000101A8AB201EE102AB8EE411A00EE821AAA
:100C3000FCEEC10A10EE901A89B200EE901AF8EE9E
:100C4000600A40EE020ABCEEE00A10EE103A9BB2D7
:100C500005D2DFE804F004081A04110D150020F88D
:100C60004C2F418002E020F84C1F4280838030BD31
:100C700020F84C3F42800BE020F84C3F418002E0DE
:100C800020F84C1F4380828030BD20F84C2F4380D9
:100C9000818030BD000000002DB25D3F2DB25DBFF0
:100CA0002DB2DD3F33B5DFED311A04462DED020BD9
:100CB000F7EE000AB0EE610A6846FFF77BFE9DED95
:100CC000000ADFED2B0A2B4A20EE200ABCEEC00AF8
:100CD00010EE100A80B2850AC0F309030AD0012D74
:100CE00015D0022D20D0032D2FD0C4ED001AC1ED58
:100CF000001A3FBD02EB830090ED000AA2EB8300D7
:100D000000F5406084ED000A90EDFF0A2BE0A2EBB5
:100D1000830000F5406090EDFF0A02EB830084ED54
:100D2000000A90ED000A0DE002EB830090ED000A4E
:100D3000A2EB830000F54060B1EE400A84ED000AAA
:100D400090EDFF0AB1EE400A0DE0A2EB830000F542
:100D5000406090EDFF0A02EB8300B1EE400A84EDA3
:100D6000000A90ED000A81ED000A3FBD000000007E
:100D700000F07F4550B2000890ED000ADFED070A51
:100D800080ED030A9FED061A20EE200AD0ED010A3D
:100D900000EE810A80ED040A704700003ACD133F4F
:100DA00039CD933F014800F09DBD00001C03002099
:100DB000014800F097BD00002002002001681823C0
:100DC000CAB2103AB2FBF3F2054B6FF30901032AE2
:100DD0009B5CC36500D9091D81650846704700000A
:100DE00048B2000810B5014600208B698A6A4FF0AE
:100DF000C07453B1B3F5005F15D072B1012A0CD0A5
:100E0000022A0AD0032A09D104E01AB1012A06D025
:100E1000022A03D1C96AC90100D5012010BDC96ADF
:100E2000A142FAD010BD002AF7D0012AF2D0022A3E
:100E3000F3D0032AF3D010BD30B50468256825F43B
:100E400080252560046863608368402B036803D0B5
:100E500099600068C26030BD9A600068C16030BDB2
:100E60007047000090ED010AD0ED020A9FED0F1AC5
:100E700060EE200A90ED030A00EE810AF7EE000A08
:100E800010EE101A80ED030AB1F17E5F03DB30EE45
:100E9000600A80ED030AB5EEC00AF1EE10FA03D243
:100EA00030EE200A80ED030A704700008D7A883CFE
:100EB00070B5B3F5804F05D06FF0704140F8221047
:100EC000002070BD50F82240084B8E891C40D1E9AB
:100ED000003543EA05138D6889692D0245EA064508
:100EE0002B430B43234340F82230E9E70000F0CFC7
:100EF000F0B50C6850F82430114A1340D1E90125AF
:100F0000D1E903672A433E4332434E6932438E6937
:100F10003243CE6932430E6A32434E6A32438E6A9E
:100F20003243CE6A3243CE6B096B32430A431A43D3
:100F3000082D01D142F0400240F824200020F0BDED
:100F40008000F0FF30B500EB820250688D8900F020
:100F50004043D1E9000440EA04108C68240244EACA
:100F6000054420430C8A074D05EB045420430C7DB7
:100F70006D0105EB04648969204308431843506000
:100F8000002030BD0000F0FF10B5642000F01BFE13
:100F900002F00AFF03F07CFA0A2000F014FE03229C
:100FA0001649174800F09AFB164800210268516361
:100FB000026891630068C163124801F0F7FE0421E2
:100FC000104801F0F3FE08210E4801F0EFFE002169
:100FD0000C4801F0C7FB04210A4801F0C3FB0821BB
:100FE000084801F0BFFB074801F0C4FC064801F0C7
:100FF000C1FCBDE81040054801F080BCE4040020BD
:10100000900100207C030020C40300200C04002079
:1010100002F09EBF70B590F83C20694D012A19D0AE
:10102000012280F83C200A6807230468092A13D9A2
:10103000E6680A3A02EB420293409E43E6600A7871
:101040008B680A3A02EB420293400268D468234359
:10105000D36010E0022070BD266902EB420293408B
:101060009E4326610A788B6802EB42029340026835
:101070001469234313610268936B23F44013936351
:101080000268936B0C8A4F4E06EB04542343936320
:101090000A790B7CD21AD21C02EB82021F239340E6
:1010A0000268946B9C4394630A790B7CD21AD21C1D
:1010B00002EB82030A8892B29A4003689C6B224337
:1010C0009A638A69AA420268936823F47023936042
:1010D000026893680CD08C6923439360026893681C
:1010E00023F44013936002689368CC69234301E0C2
:1010F00023F4401393604A7D002A0268536802D0AB
:1011000043F4806301E023F4806353600A7D002A86
:101110000268536802D043F4805301E023F4805303
:1011200053604A68012A16D0022A1FD0032A026897
:1011300027D0136A6FF30B0313620268136ACC683B
:1011400023431362214B04681F4A9C4227D10C6839
:10115000122C20D023E0026853696FF30B03536114
:1011600002685369CC6823435361EBE702689369D3
:101170006FF30B03936102689369CC682343936117
:10118000E0E7D3696FF30B03D3610268D369CC68DE
:101190002343D361D6E7546844F480045460046860
:1011A0009C4208D10968102901D0112903D1516846
:1011B00041F400015160002180F83C10084670BDE8
:1011C00001000F000000F0FF00230140002001405B
:1011D0000E4810B5D0F83C110D4C6166D0F84001B6
:1011E000E066B4F89000206604F026F803F052F9A7
:1011F0000848B4F8E410026851630268B4F8E610D5
:1012000091630068B4F8E810C16310BD002001408C
:10121000540400207C03002018B50022009290F8AE
:101220003C10012907D0012180F83C1001688B682F
:10123000DB0702D011E0022018BD8B6843F00103E8
:101240008B602A492A4B0968B1FBF3F101EB41019C
:1012500000E0491E00910029FBD101688B68DB0783
:101260003AD0036C42F20104A34343F48053036475
:10127000036CDB0500D4426480F83C206FF004026C
:101280000A6001684A6842F080024A601949496868
:101290000068C906816801F440110FD0D1B1002265
:1012A0004168154B41F38021491C98421CD1DAB1A9
:1012B000D1B1816841F48001816015E041B1002124
:1012C000426842F38022521C71B1002AF1D10BE036
:1012D0000121F5E70122E3E7016C41F0100101640F
:1012E000416C41F001014164002018BD0000002064
:1012F00040420F00002301400020014078B5002447
:10130000009490F83C20012A19D0012280F83C205A
:101310000A6807230568092A13D9EE680A3A02EB1E
:10132000420293409E43EE600B788A680A3B03EBCF
:1013300043039A400368DD682A43DA6010E0022024
:1013400078BD2E6902EB420293409E432E610B78DA
:101350008A6803EB43039A4003681D692A431A61B4
:101360004A681F23072A13D205686E6B521E02EBD0
:10137000820293409E436E630B790A885B1E92B291
:1013800003EB83039A4003685D6B2A435A6327E0AB
:1013900005680D2A12D22E6BD21F02EB82029340F7
:1013A0009E432E630B790A88DB1F92B203EB830303
:1013B0009A4003681D6B2A431A6311E0EE6A0D3AE6
:1013C00002EB820293409E43EE620B790A880D3B4A
:1013D00092B203EB83039A400368DD6A2A43DA6220
:1013E000164B0568144A9D4206D10D68122D03D193
:1013F000556845F48005556005689D4218D10B6815
:10140000102B01D0112B13D1536843F40003536008
:10141000096810290CD10A490A4A0968B1FBF2F19E
:1014200001EB8101490000E0491E00910029FBD138
:1014300080F83C40002078BD00230140002001409E
:101440000000002040420F0070477047704770B5A1
:101450000446006801684268C1F34001C2F34012CB
:1014600051B34AB3216CC90603D4216C41F4007115
:101470002164816811F0405F17D1217EA9B9C16A4A
:1014800011F4700F02D0816849050ED4416821F033
:1014900020014160206C20F480702064206CC00426
:1014A00003D4206C40F0010020642046FFF7CCFFFD
:1014B00021686FF012000860206801684268C1F37B
:1014C0008001C2F3C01289B382B3216CC90603D470
:1014D000216C41F400512164816811F4401F1ED138
:1014E000816B11F4401F02D08168490517D441680F
:1014F000490514D4816811F0405F10D1217E71B983
:10150000416821F080014160206C20F4805020640B
:10151000206CC00503D4206C40F0010020642046FC
:10152000FFF756FE21686FF00C0008602068016824
:10153000426811F0010FC2F380120ED06AB1006848
:10154000C0070AD0206C40F480302064204600F0B0
:1015500046F821686FF00100086020680168426861
:10156000C1F34011C2F3806200290DD0002A0BD0D4
:10157000616C41F0020161646FF020050560204656
:10158000FFF764FF2068056070BD70B504004FF080
:10159000000503D0206C002610B107E0012070BDCB
:1015A000204600F01DF8666484F83C60206CC0069C
:1015B00010D4206C20F4885040F0020020642046B3
:1015C000FFF764F96664206C20F0020040F001002F
:1015D000206400E0012584F83C60284670BD704717
:1015E00070B586B0064614216846FEF729FE334BD7
:1015F00032680025324903209A423FD10A6842F4FA
:1016000000720A600968029501F400710591482191
:10161000CDE9001069462B4800F0D8FA012000906F
:101620006946294800F0D2FA294C284820604FF03A
:101630000070C4E90105C013C4E9035040006061B3
:101640008000A0614011E0614002C4E90805204625
:1016500000F018FAB463002211463A20A66300F0A5
:1016600015FC3A2000F005FC00221146122000F083
:101670000DFC122000F0FDFB06B070BD154B9A4228
:10168000FAD10A6842F480620A60096801F4806154
:1016900005910B4914390A6842F020020A60096872
:1016A000029501F0200105914FF46071CDE9001021
:1016B0006946094800F08AFADEE70000002101408F
:1016C00044380240000002400004024040640240EE
:1016D000200200200022014000140240F8B5044618
:1016E00000200E46009094F83C10012907D00121FB
:1016F00084F83C1021688B68DB0702D011E00220DF
:10170000F8BD8B6843F001038B604049404B09688A
:10171000B1FBF3F101EB410100E0491E009100290A
:10172000FBD121688B68DB0503D58B6823F48073BC
:101730008B6021688B68DB075DD0236C40F201650C
:10174000AB4343F4807323644968490505D5216C94
:1017500021F4005141F480512164216CC90404D565
:10176000616C21F00601616400E0606484F83C0073
:10177000A16B2948274DC863A16B28480864A16B59
:101780002748C86421686FF022000860206841681B
:1017900041F0806141602068816841F4807181601E
:1017A0002168134632464C31A06B00F0D5F96868C9
:1017B0001C49C006206806D0884224D1816811F0F7
:1017C000405F13D01FE08842F8D0174A904203D1FF
:1017D000D1F80423D206F1D0144A904213D1D1F8A3
:1017E000041301F01F011029E8D30CE0816841F0D7
:1017F0008041816007E0206C40F010002064606C44
:1018000040F0010060640020F8BD000000000020EE
:1018100040420F0000230140F1070008750800084E
:101820005F08000800200140002101400022014023
:101830002DE9F0410446876D00F0D6FA064694F88B
:1018400035000025022806D08020606584F83450D9
:101850000120BDE8F0812068016821F016010160D7
:101860002068416921F080014161206C08B9A06CB9
:1018700020B12068016821F008010160206801683A
:1018800021F0010101600BE000F0AEFA801B052899
:1018900006D92020606504F8345F03206070D8E723
:1018A00020680068C007EFD194F85C103F208840A2
:1018B000B86004F8345F012060700020C9E790F838
:1018C0003510022903D08021416501207047052190
:1018D00080F835100068016821F0010101600020E6
:1018E000704700002DE9F84304464FF00009CDF899
:1018F000009063484FF41651A56D0068B0FBF1F7F6
:101900002E6894F85C10082000FA01F131420FD0E3
:1019100021680A6852070BD50A6822F004020A609F
:1019200094F85C108840A860606D40F0010060652C
:1019300094F85C104FF0010808FA01F0304208D02A
:1019400021684969090604D5A860606D40F002006D
:10195000606594F85C1004208840304208D021680B
:101960000968890704D5A860606D40F004006065CF
:1019700094F85C1010208840304218D02168096823
:10198000090714D5A86020680168490304D50068D8
:10199000000308D5A16C07E00168C90503D40168FC
:1019A00021F008010160216C09B12046884794F8B4
:1019B0005C1020208840304231D021680968C90677
:1019C0002DD5A86094F8350005282068016806D058
:1019D000490347D5006800031DD4616C1CE021F069
:1019E000160101602068416921F080014161206C8D
:1019F00008B9A06C20B12068016821F008010160DD
:101A000094F85C103F208840A86084F8349084F8F3
:101A10003580216D1FE0E16B09B120468847606D7C
:101A200000282BD0606DC00714D0052084F8350045
:101A30002068016821F0010101600098401C0090BD
:101A4000B84203D820680068C007F6D184F8349003
:101A500084F83580E16C002910D001B02046BDE843
:101A6000F04308470168C905D5D4016821F0100189
:101A7000016084F8349084F83580CCE7BDE8F883C1
:101A8000000000202DE9F041044600F0ADF90646C3
:101A90005CB1002584F83450022084F835002068B9
:101AA000016821F0010101600DE00120BDE8F08135
:101AB00000F09AF9801B052805D9202060650320D5
:101AC00084F83500F2E720680068C007F0D122688A
:101AD000116820480140D4E901031843D4E90336D2
:101AE0003343184363691843A3691843E3691843F0
:101AF000236A18430843616A042903D1D4E90B130C
:101B000019430843106020684069666A20F00701A5
:101B100030460E43012704280CD1A06A0643E06A30
:101B200040B12046FFF75EF920B14020606584F89F
:101B30003570BAE7206846612046FFF73FF994F810
:101B40005C203F2191408160656584F835700020FC
:101B5000ACE700003F8010F02DE9F0410446866DAF
:101B600090F83400002501280DD0012084F83400BD
:101B700094F835700020012F07D084F83400022536
:101B80002846BDE8F0810220FBE7022784F8357083
:101B900060652046FFF750F994F85C103F208840BC
:101BA000B0602068016841F016010160206C20B12E
:101BB0002068016841F0080101602068016841F077
:101BC00001010160DCE780B204F078BE2DE9F84F36
:101BD000DFF8B8A1002201250AF1040B03264FF01B
:101BE0000F090BF1040E00BF0B6805FA02F4234045
:101BF000A3426FD10F7907F00307012F01D0022F05
:101C000016D187684FEA420806FA08FC27EA0C0753
:101C1000D1F80CC00CFA08FC4CEA070CC0F808C05C
:101C20004768A7430C79C4F3001494403C434460D4
:101C30000C79E443A4070AD0C4684FEA420C06FAC0
:101C40000CF7BC438F6807FA0CF72743C7600C7981
:101C500004F00304022C12D1D40800EB840CDCF84D
:101C600020405707FF0E09FA07F824EA0804D1F8C4
:101C7000108008FA07F848EA0408CCF820800468C5
:101C80004FEA420C06FA0CF7BC430F7907F0030742
:101C900007FA0CF7274307604C68E40070D53C4C0A
:101CA000276847F480472760246822F0030704F47C
:101CB00080440094374C07EB040CDCF80848970785
:101CC0004FEA177809FA08F7BC43334FB84202D1FC
:101CD000002724E054E0314FB84201D101271EE033
:101CE0002F4FB84201D1022719E02E4FB84201D13F
:101CF000032714E02C4FB84201D104270FE02B4FEB
:101D0000B84201D105270AE0294FB84201D1062780
:101D100005E0284FB84201D1072700E0082707FA5D
:101D200008F72743CCF80878DAF800405746D1F88E
:101D300004C09C435FEACC3C00D51C433C60DBF80C
:101D400000405F46D1F804C09C435FEA8C3C00D55C
:101D50001C433C60DEF800407746D1F804C09C4349
:101D60005FEACC2C00D51C433C60084F0C373C6824
:101D7000D1F804C09C435FEA8C2C00D51C433C6026
:101D8000521C102AFFF430AFBDE8F88F003C014030
:101D9000443802400030014000000240000402408C
:101DA00000080240000C02400010024000140240F3
:101DB00000180240001C02400069084000D00120C9
:101DC0007047426921EA02030A4043EA0241816105
:101DD00070470AB1816170470904FBE70148006858
:101DE000000C7047002004E0014880687047000044
:101DF0001000002002488168027811448160704719
:101E000010000020094810B5016841F4007101601C
:101E1000016841F480610160052000F057F80F204F
:101E200000F006F800F024F8002010BD003C02404D
:101E300070B50D4D04464FF47A712878B1FBF0F07F
:101E40000A490968B1FBF0F000F004FC48B9102C15
:101E500007D200222146501E00F018F800206C60C6
:101E600070BD012070BD00001000002000000020A7
:101E70007047002809DB00F01F0201219140400952
:101E8000800000F1E020C0F800117047F0B40E4B64
:101E90001B680C46C3F30223C3F10705042D00D9C8
:101EA0000425191D072901D2002300E0DB1E0126AD
:101EB00006FA05F1491E214099409E40761E1640C3
:101EC0003143F0BC03F0D0BB0CED00E0064900F05C
:101ED000070208684FF6FF03184040EA0220034A51
:101EE00010430860704700000CED00E00000FA05A8
:101EF0002DE9F0470E46050065D0DFF81481D8F8CB
:101F00000000F7B200F00700B04207D288F8007076
:101F1000D8F8000000F00700B04254D128683D4CCA
:101F2000810712D5400703D5206840F4E0502060B7
:101F30002878000703D5206840F4604020602068BE
:101F4000A96820F0F000084320602878C0072DD051
:101F5000304968680839012812D0022813D00328B4
:101F600011D00968890700292DDA216821F00301C1
:101F700001432160FFF738FF814641F2883A0EE0C5
:101F800009688903EFE709688901ECE7FFF72CFF8F
:101F9000A0EB0901514502D90320BDE8F087206874
:101FA000696800F00C00B0EB810FEFD1D8F8001099
:101FB000404601F00701B14207D90770006800F000
:101FC0000700B04201D00120E7E72878400705D597
:101FD0002068E96820F4E050084320602878000772
:101FE00006D52068296920F4604040EAC1002060DD
:101FF00000F038F82168084AC1F30311515CC84069
:102000000649086006480068FFF712FF0020C4E791
:10201000003C02400838024030B2000800000020B6
:10202000140000200448054900680968044AC1F307
:102030008221515CC84070470000002008380240EF
:1020400040B200080448054900680968044AC1F321
:102050004231515CC84070470000002008380240FF
:1020600040B20008154810B5006810F00C02144882
:1020700013D01449042A0FD0082A0ED10F4C241F64
:102080002268236802F03F025B0207D52068C0F394
:102090008810A0FB010106E0084610BD2168C1F3CD
:1020A0008811A1FB00010023FEF792F82168C1F31B
:1020B0000141491C4900B0FBF1F010BD0838024055
:1020C0000024F40040787D012DE9F84F04006ED023
:1020D0002078DFF84C93C007A9F104054AD009F134
:1020E00004000168C1F38101012908D00068C0F330
:1020F000810002280AD1D9F80000400206D52868DC
:10210000800337D560680028E1D033E06068B0F51F
:10211000803F10D0B0F5A02F286810D020F4803078
:102120002860286820F4802028606068A8B1FFF744
:102130005BFE06460DE0286840F48030F4E740F48A
:1021400080202860F7E700BFFFF74EFE801B642861
:1021500073D828688003F7D50CE0FFF745FE0646E4
:1021600005E000BFFFF740FE801B6428F0D8286818
:102170008003F7D42078DFF8AC8280074FF0000AA4
:102180003ED5A748001D016811F00C0F08D000686B
:10219000C0F3810002280BD1D9F80000400207D417
:1021A0002868800716D5E068012800D112E033E1E5
:1021B000E068B8B10120C8F80000FFF715FE064638
:1021C00005E000BFFFF710FE801B0228C0D828687A
:1021D0008007F7D52868216920F0F80040EAC1009F
:1021E00028600DE0C8F800A0FFF7FEFD064604E0F9
:1021F000FFF7FAFD801B02281FD828688007F7D454
:102200002078000722D5864F87486169703771B101
:1022100001210160FFF7E8FD064604E0FFF7E4FD59
:10222000801B022809D838688007F7D50EE0C0F86F
:1022300000A0FFF7D9FD064605E082E0FFF7D4FDD8
:10224000801B02287DD838688007F7D420784007A3
:1022500068D5DFF8CCB100270BF13C0BDBF80000B0
:10226000C0000BD4DBF8001041F08051CBF8001017
:10227000DBF80000012700F0805000906B4E3068C2
:10228000C00510D4306840F480703060FFF7ACFDBA
:10229000009005E0FFF7A8FD0099401A022850D8E9
:1022A0003068C005F6D55E4EA0686C3601280FD0A8
:1022B0000528306810D020F001003060306820F030
:1022C00004003060A068B8B1FFF78EFD00900FE009
:1022D000306840F00100F4E740F004003060F7E7B8
:1022E000FFF782FD0099411A41F28830814266D899
:1022F00030688007F4D50EE0FFF776FD009007E028
:10230000FFF772FD0099411A41F28830814256D898
:1023100030688007F4D42FB1DBF8001021F0805131
:10232000CBF80010A069C8B33D49091D0968C1F385
:10233000810102294AD00228504607D0C8F860001F
:1023400000E03CE0FFF750FD04463BE04746C8F89C
:102350006000FFF749FD064605E000BFFFF744FDBA
:10236000801B02282BD828688001F7D4D4E9070104
:102370000843A16A2E4A490802EB0141626A41EA18
:102380008211084394F82C1040EA0161C9F800104A
:1023900001203866FFF728FD044606E03EE000BF56
:1023A000FFF722FD001B022809D828688001F7D515
:1023B00034E000BFFFF718FD001B022802D90320FC
:1023C000BDE8F88F28688001F4D427E00128F7D011
:1023D000D9F80000E26900F4800191421CD1226A20
:1023E00000F03F01914217D147F6C071626A014087
:1023F000B1EB821F10D1A26A4FF0FF3300F44031DD
:1024000003EB5202B1EB024F06D194F82C1000F00E
:102410007060B0EB016F01D00120D1E70020CFE761
:102420000438024000004742800E474200700040DE
:102430000000FFFF70B5040008D0606A002538B1C5
:102440002561656194F8510040B10CE0012070BD38
:102450006068B0F5827FF5D0E561F3E784F850500D
:10246000204600F04DF8022084F8510020680168F1
:1024700021F040010160A088218900F4827001F4FC
:1024800004410843A18901F400610843217C01F063
:1024900002010843217D01F001010843218B01F471
:1024A00000710843217F01F03801084394F820109F
:1024B00001F080010843218D01F400510843216897
:1024C0000860A069042101EA104094F8241001F08A
:1024D0001001084321684860A06AB0F5005F03D18D
:1024E000A08D216880B208612068C16921F4006173
:1024F000C1616565012084F85100002070BD0000B5
:1025000030B587B0044614216846FDF799FE1B4993
:10251000206888422FD11A480021026842F4804284
:102520000260006800F48040059015481038026889
:1025300042F4807202600068022400F4807005900A
:102540000E20CDE900040320CDE9021005200D4D39
:10255000049069462846FFF739FB012211462846B8
:10256000FFF737FC0121CDE9021400910191694682
:102570002846FFF72BFB07B030BD000000380040B5
:10258000403802400020024070B515460E46040057
:1025900003D094F8490010B107E0012070BD00207D
:1025A00084F84800204600F01BF804F10801206878
:1025B000FEF79EFC3146A2682068FEF7C3FCD4E912
:1025C00001022946236BFEF773FCA168206850F8CE
:1025D000212042F0010240F82120002070BD0000BF
:1025E000194800B5016887B041F001010160006839
:1025F00000F00100059014480838016841F0080116
:102600000160016801F008010591016841F01001C5
:1026100001600068012100F0100005904CF2037089
:1026200000900220CDE9010103900C20049069463E
:102630000648FFF7CBFA4FF68070009069460448D1
:10264000FFF7C4FA07B000BD38380240000C024062
:102650000010024010B5401EB0F1807F01D3012070
:1026600010BD4FF0E02460610F21601702F0FCFF05
:102670000020A06107202061002010BD7047704736
:1026800010B590F83C20012A22D0012280F83C208D
:10269000CA688C6822F4407222434C6822F480623B
:1026A00022430C6822F4006222430C6922F4805217
:1026B00022434C6922F400522243C969002322F4C8
:1026C00080420A4301684A6480F83C30002010BD13
:1026D000022010BD70B590F83C20012A32D00124B0
:1026E00080F83C40022280F83D2003685A689D68CB
:1026F00022F070060A6832435A60134B02689A420D
:1027000014D0B2F1804F11D0104B9A420ED0104B22
:102710009A420BD00F4B9A4208D00F4B9A4205D0E9
:102720000E4B9A4202D00E4B9A4204D1496825F0D2
:1027300080031943916080F83D40002180F83C10EF
:10274000084670BD022070BD00000140000400403A
:1027500000080040000C004000040140004001401F
:102760000018004010B50446022249B104290ED0D9
:10277000082913D094F84500012816D0012010BD77
:1027800094F842000128F9D184F842200FE094F82F
:1027900043000128F2D184F8432008E094F8440073
:1027A0000128EBD184F8442001E084F8452004227C
:1027B000206802F0D2FB2068416C41F40041416482
:1027C00011492068884214D0B0F1804F11D00F49D0
:1027D00088420ED00E4988420BD00E49884208D05C
:1027E0000D49884205D00D49884202D00C498842E3
:1027F00004D1816801F00701062903D0016841F086
:1028000001010160002010BD0000014000040040F3
:1028100000080040000C004000040140004001405E
:102820000018004010B5040003D094F83D0010B12A
:1028300007E0012010BD002084F83C00204600F095
:102840001FF8022084F83D00211D206802F014FBCF
:10285000012084F8460084F83E0084F83F0084F8A4
:10286000400084F8410084F8420084F8430084F872
:10287000440084F8450084F83D00002010BD0000AD
:1028800008B501681A4881420FD11A48016841F021
:10289000020101600068002200F002000090114671
:1028A0002C20FFF7F3FA2C201EE01248001FB1F194
:1028B000804F0BD0104A914207D1016841F01001BE
:1028C0000160006800F01000009008BD016841F050
:1028D000010101600068002200F001000090012168
:1028E0001C20FFF7D3FA1C20BDE80840FFF7C1BA4F
:1028F00000040140443802400010004090F83D10B0
:10290000012901D001207047022180F83D100068A4
:102910001149884214D0B0F1804F11D00F4988423C
:102920000ED00F4988420BD00E49884208D00E497C
:10293000884205D00D49884202D00D49884204D111
:10294000816801F00701062903D0016841F0010107
:1029500001600020704700000000014000040040BA
:1029600000080040000C004000040140004001400D
:102970000018004090F83D10012901D00120704757
:10298000022180F83D100168CA6842F00102CA6065
:1029900000681149884214D0B0F1804F11D00F491E
:1029A00088420ED00E4988420BD00E49884208D08A
:1029B0000D49884205D00D49884202D00C49884211
:1029C00004D1816801F00701062903D0016841F0B4
:1029D0000101016000207047000001400004004038
:1029E00000080040000C004000040140004001408D
:1029F0000018004070B5044690F83C00012817D03C
:102A0000012584F83C50022084F83D00206882684B
:102A100022F0770222F47F4282600868502830D08A
:102A20000DDC20284DD005DC98B310283BD148E0C0
:102A3000022070BD302844D0402834D139E06028CD
:102A400028D0702806D0B0F5805F2CD0B0F5005F9C
:102A500029D10AE0CB68D1E90121206802F08AFA85
:102A60002068816841F0770109E0CB68D1E9012154
:102A7000206802F07FFA2068816841F4804181601B
:102A800011E0CA684968206802F048FB50212068BC
:102A900007E016E0CA684968206802F050FB602130
:102AA000206802F071FA84F83D50002084F83C0060
:102AB00070BDCA684968206802F030FB4021206878
:102AC000EFE7226801461046EBE7704770B5044611
:102AD000006801694FF00005C943890715D4C16832
:102AE000C943890711D4E91E0161012020772068BC
:102AF00080698007204602D0FFF7E7FF04E000F07E
:102B0000C1F8204600F050F9257720680169C943D3
:102B1000490717D4C168C943490713D46FF00401AA
:102B20000161022020772068806910F4407F2046F0
:102B300002D0FFF7CAFF04E000F0A4F8204600F03E
:102B400033F9257720680169C943090716D4C1689C
:102B5000C943090712D46FF00801016104202077EE
:102B60002068C0698007204602D0FFF7AEFF04E06E
:102B700000F088F8204600F017F9257720680169F1
:102B8000C943C90617D4C168C943C90613D46FF035
:102B900010010161082020772068C06910F4407F8F
:102BA000204602D0FFF791FF04E000F06BF82046CA
:102BB00000F0FAF8257720680169C943C90708D1F0
:102BC000C168C943C90704D1891E0161204600F0CC
:102BD00051F920680169C943090609D4C168C9438C
:102BE000090605D46FF0800101612046FFF746FD1C
:102BF00020680169C943490609D4C168C943490627
:102C000005D46FF040010161204600F069F92068A9
:102C10000169C94389060BD4C168C943890607D431
:102C20006FF0200101612046BDE87040FFF727BD2D
:102C300070BD000010B586B0044614216846FDF74B
:102C4000FFFA0D492068884213D10220019000202C
:102C50000290032003900490E0200090694607480A
:102C6000FEF7B4FF4FF46040009069460448FEF759
:102C7000ADFF06B010BD000000040140002002407E
:102C8000001C0240704770B5044690F83C000D46A9
:102C900001280AD0012084F83C0042B1042A18D04F
:102CA000082A2AD00C2A4DD139E0022070BD2068B4
:102CB00002F072F92068816941F0080181612068A1
:102CC000816921F004018161206881692A691143C9
:102CD00011E0206802F090F92068816941F40061F8
:102CE00081612068816921F4806181612068816946
:102CF0002A6941EA0221816124E0206802F0B2F9E8
:102D00002068C16941F00801C1612068C16921F0F2
:102D10000401C1612068C1692A69114311E020687A
:102D200002F0D4F92068C16941F40061C1612068F2
:102D3000C16921F48061C1612068C1692A6941EAE1
:102D40000221C161002084F83C0070BD10B5040070
:102D500003D094F83D0010B107E0012010BD002021
:102D600084F83C00204600F01EF8022084F83D0064
:102D7000211D206802F080F8012084F8460084F8C4
:102D80003E0084F83F0084F8400084F8410084F855
:102D9000420084F8430084F8440084F8450084F835
:102DA0003D00002010BD70477047000010B504467C
:102DB000022249B104290ED0082913D094F8410009
:102DC000012816D0012010BD94F83E000128F9D149
:102DD00084F83E200FE094F83F000128F2D184F8F7
:102DE0003F2008E094F840000128EBD184F840200F
:102DF00001E084F841200122206802F0A1F8164980
:102E00002068164A884201D0904203D1436C43F4B3
:102E1000004343642068884213D0B0F1804F10D043
:102E20000F4988420DD00F4988420AD00E49884286
:102E300007D0904205D00D49884202D00C49884203
:102E400004D1816801F00701062903D0016841F02F
:102E500001010160002010BD00000140000401409C
:102E60000004004000080040000C00400040014009
:102E70000018004010B513490446006809688842EC
:102E800002D11148FEF7C8F9104920680968884244
:102E900017D10F490888401C08800E490888401C3B
:102EA00008800D490888401C08800C490888401C8F
:102EB000088001F07DF800F061FFBDE8104002F0ED
:102EC00069BB10BD7C03002090010020C4030020DA
:102ED0002C000020220000202800002030000020CC
:102EE00070477047704710F83D1F4078084370479F
:102EF000F8B5026804461068D168536910F00F0FE6
:102F00004FF0000553D003F0010601F490773743EA
:102F10005FD0C20705D0CA0503D5226C42F001027A
:102F20002264420705D5DA0703D0226C42F0020280
:102F30002264820705D5DA0703D0226C42F004022E
:102F40002264020707D501F02002324303D0226C2D
:102F500042F008022264226C002A34D0800604D594
:102F6000880602D5204602F0F7F920684069216CF6
:102F7000C0F38010090700D430B3204602F0CBF92B
:102F80002068416949061BD5416921F04001416132
:102F9000A06BA8B159490165A06BFEF790FC002811
:102FA00011D0A06B016D01B0BDE8F0400847830669
:102FB0000FD58B060DD52046BDE8F84002F0CCB900
:102FC0002046FFF78FFFF8BD2046FFF78BFF2564F3
:102FD000F8BD266B2023012E53D1C60651D5CE064F
:102FE0004FD5106850680090506940062BD5A16BF2
:102FF000086840680004000CEAD0A68D8642E7D934
:10300000E085C869B0F5807F18D0D06820F4807062
:10301000D0602068416921F0010141612068416967
:1030200021F04001416184F83E3025632068C16889
:1030300021F01001C160A06BFEF7FAFBA08DE18DBD
:10304000401A81B219E0A08DE18D401A81B2E08D65
:103050000028BDD00029BBD0D06820F49070D0608B
:103060002068426922F00102426184F83E30256303
:103070002068C26822F01002C2602046FFF731FFCC
:10308000F8BD05062BD50D0629D594F83D0021285D
:10309000F6D1A068B0F5805F01D12069B0B1206A97
:1030A000411C2162216800784860E08C401E0004C9
:1030B000000CE084E4D12068C16821F08001C16087
:1030C0002068C16841F04001C160F8BD206A0088F5
:1030D000C0F308005060206A801C2062E5E74006CB
:1030E000F3D54806F1D5D168204621F04001D160E2
:1030F00084F83D3000F000F9F8BD0000855200086A
:1031000070B5040004D094F83D00002510B106E02D
:10311000012070BD84F83C50204600F023F82420A4
:1031200084F83D002068C16821F40051C160204648
:1031300002F06AF92068016921F490410161206878
:10314000416921F02A0141612068C16841F40051C0
:10315000C1602564202084F83D0084F83E000020F2
:1031600070BD000030B500681F4987B0884238D173
:103170001E48016841F480210160006800F480204D
:1031800005901A481038016841F004010160016897
:1031900001F004010591016841F00401016000683B
:1031A000012100F0040005904FF48060009002209F
:1031B000CDE901010724CDE903040D4D69462846F8
:1031C000FEF704FDE8140090694604942846FEF7D3
:1031D000FDFC2720FEF74DFE032211462720FEF7B7
:1031E00055FE07B030BD00000048004040380240A6
:1031F0000008024090F83E30202B0ED159B152B158
:1032000090F83C30012B08D0012380F83C3000239B
:10321000036302F07FB9012070470220704700006D
:1032200030B50068114988420CD1114841880A0420
:1032300008D402464C0412784FF0000306D50A2A3F
:1032400001D0438030BD41F400410DE00D2A09D08A
:10325000C1F30D04074D491C89B22A554180C72985
:10326000EFD830BD41F48041418030BD004800407E
:10327000080000208400002070B5044690F83D004E
:10328000202830D169B362B394F83C0001282AD0D9
:10329000012084F83C002162A284E2840025256498
:1032A000212084F83D00636B1048D863636B10489D
:1032B0001864636B0F48D864606B13460565266815
:1032C000606B321DFEF748FC21686FF0400008601B
:1032D00084F83C502068416941F080014161002040
:1032E00070BD012070BD022070BD0000DF520008DB
:1032F0000D530008955200087047704710B581784B
:10330000D0ED091A0122D0ED080AB6EE000A00231A
:1033100041BB30EEE11A8188491C21EE001A89B2C6
:10332000818080ED051AB5EEC01AF1EE10FA03D2D5
:10333000B1EE411A80ED051A42F6A004B1EE041A6E
:10334000A14238D30C1BC82C35D3C83C0A2C0AD256
:1033500080ED041A90ED021A90ED052A31EE021A62
:1033600080ED021A38E0A1F52454723C9FED401A1A
:10337000C82C20D3C83CB9EE042AC82C02D280ED58
:10338000042A29E0A1F52C54023C0A2C0AD280ED33
:10339000042A90ED031A90ED052A31EE021A80ED11
:1033A000031A19E0A1F52C540C3C04D0A1F52C54BF
:1033B0000D3C03D010E080ED041A0DE08270838094
:1033C00090ED031A90ED022AB4EEC21AF1EE10FA53
:1033D00001DD427000E0437030EEA11A21EE001AC8
:1033E00080ED0A1A90ED0B1AD0ED0C1A71EE211A2D
:1033F00061EE801AC0ED0D1AC0ED090A80ED0C1ABD
:10340000D0ED101AC0ED111A90ED141A80ED151AB6
:10341000D0ED0E2AD0ED0F0A72EEE00A60EE800ABF
:10342000C0ED100A90ED122A90ED133A32EE433AB5
:1034300023EE000A80ED140AC0ED0F2A80ED132A56
:10344000017E59B1012908D171EEE00A31EE400A3E
:10345000C0ED160A80ED170A037610BD70EEE10A82
:1034600030EE410AC0ED160A80ED170A027610BD53
:1034700000000000024801784942017070470000D6
:103480001C00002005480178042904D0012901D13D
:103490000421017070470121FBE700005404002063
:1034A000FEE7000070B5444C04F1980094ED1C0A4E
:1034B000054684ED260A94ED1D0A84ED270AFDF7E2
:1034C0005BFC04F1B00194EDBF0A081FFDF7EAFBB5
:1034D000284601F0DDF894ED2D0A04F50D7084ED19
:1034E000950A94ED2E0A84ED980A94ED290A84ED4C
:1034F0009B0A94ED2A0A84ED9F0AFFF7FFFE94F8D9
:10350000360218B994ED910A84ED4C0A94F835020C
:10351000012815D1002084F8350294EDBC0ADFEDB6
:10352000270A274930EE200A10EE100A84EDBC0A63
:10353000884205DDDFED230A30EE600A84EDBC0A27
:10354000214994EDBF0A081FFDF7ACFB94EDA40AD6
:103550001D4884EDB90A94EDA30A2838B1EE400A5B
:1035600084EDBA0A01F038F894ED9A0A124884ED15
:103570003F0A94ED970AEC3084ED4D0A00F0E9FF24
:10358000124800F0E6FF94ED400A284684ED340A24
:1035900094ED4E0AD4ED940A30EE200A84ED330AFD
:1035A00000F082FB94ED1F0A284684ED370ABDE83F
:1035B0007040FDF77BBA000054040020DA0F494048
:1035C000DB0FC940DB0FC9405807002078050020F9
:1035D00070B5A34C2DED028B94ED1F0ADFEDA10A0F
:1035E00004F5E47020EE200A84ED800A94ED700A60
:1035F00084ED740A01F0B6FD94ED030A04F5FA7047
:1036000084ED7E0A94ED060A84ED7F0A94ED290A82
:1036100084ED810A94ED2A0A84ED820A94ED350A3C
:1036200084ED850A94ED360A84ED860A01F046F8A9
:1036300094F8C80184F8940294ED880A04F5257082
:1036400084EDA70A94ED8A0A84EDA80A00F0C4FF6D
:1036500004F52F7194EDAD0A081FFDF723FB94F8D4
:10366000340200259FED808A012845D194ED2D0A72
:1036700004F50D7084ED950A94ED2E0A84ED980AF8
:1036800094ED290A84ED9B0A94ED2A0A84ED9F0AA1
:10369000FFF734FE94F8360218B994ED910A84EDE0
:1036A0004C0A94F83502012812D184F8355294ED71
:1036B000BC0ADFED6E0A6E4930EE200A10EE100AE9
:1036C00084EDBC0A884203DD30EE480A84EDBC0A72
:1036D000684994EDBF0A081FFDF7E4FA94EDA40AC7
:1036E000644884EDB90A94EDA30A2838B1EE400A83
:1036F00084EDBA0A00F070FF94EDC70AC0EE080A24
:103700009FED5D0A5B487C3060EE800AC4EDE50AFF
:10371000D4EDBF0AC4EDE70AD4EDB50A80EE881AED
:1037200021EE000A84EDE80A94EDAD0A84EDEA0A80
:1037300094ED790A84EDE30A00F08CF994EDED0A3A
:10374000F1EE0C0A80EE201A84ED6F1AB4F898019D
:10375000401C80B2A4F8980102280ED3A4F8985116
:10376000D4ED790A4548C4ED5A0A84ED5B0A00F0AD
:10377000F0FE94ED5C0A84ED3E0A94ED1C0A384894
:1037800084ED260A94ED1D0A983084ED270A05463B
:10379000FDF7F2FA394994EDEE0AAC39081FFDF74E
:1037A00081FA284600F074FF94ED2D0A94ED311A49
:1037B000F7EE000AD4ED2F1A20EE010A30EEC11AFE
:1037C00001EE810A84ED2F0AD4ED321A94ED2E1AFF
:1037D00094ED302A70EEE10A21EE211A02EE201A51
:1037E00084ED301A94F83402D8B194ED9A0A84ED3D
:1037F0003F0A94ED970A00BF204884ED4D0A7038C7
:1038000000F0A7FE1D48383800F0A3FE94ED400AF2
:1038100084ED340A94F83402012805D094ED4E0A60
:103820000BE084ED3F1AE7E794F84C0294ED4E0A62
:10383000D4ED940A88B130EE600A284684ED330A4C
:1038400000F032FA94ED1F0A284684ED370ABDECE9
:10385000028BBDE87040FDF729B930EE200AECE795
:103860005404002036CD133FDB0FC940DA0F494026
:10387000DB0FC9405807002000007042B00500204F
:1038800070B56A4CF6EE000A2DED028BB4F892008A
:10389000674900EE100AB8EE400A20EE200A10EE4A
:1038A000100A84ED700A884208DC10EE100A6149A3
:1038B000884203D89FED600A84ED700A84ED740A93
:1038C0005E4801F04FFCB4F89801401C80B2A4F8A7
:1038D000980100259FED5A8A022817D3A4F8985121
:1038E00094ED790A84ED5A0AD4EDC70A80EE880A6D
:1038F000DFED540A51486C3820EE200A84ED5B0A53
:1039000000F027FE94ED5C0A84ED3E0A94ED1C0A5B
:10391000464884ED260A94ED1D0A983084ED270A66
:103920000646FDF729FA414994EDBF0AB031081F58
:10393000FDF7B8F9304600F0ABFE94ED2D0A3F4894
:1039400084ED950A94ED2E0A6C3084ED980A94ED7E
:10395000290A84ED9B0A94ED2A0A84ED9F0AFFF759
:10396000CDFC94F8360218B994ED910A84ED4C0A16
:1039700094F83502012812D184F8355294EDBC0A2E
:10398000DFED310A314930EE200A10EE100A84EDE5
:10399000BC0A884203DD30EE480A84EDBC0A2C499B
:1039A00094EDBF0A081FFDF77DF994EDA40A28489D
:1039B00084EDB90A94EDA30A2838B1EE400A84EDEB
:1039C000BA0A00F009FE94ED9A0A1C4884ED3F0AF9
:1039D00094ED970ADC3884ED4D0A00F0BAFD1748E3
:1039E000A43800F0B6FD94ED400A84ED340A94F852
:1039F0004C0294ED4E0AD4ED940A012812D030EE18
:103A0000600A00BF84ED330A304600F04DF994EDB2
:103A10001F0A304684ED370ABDEC028BBDE87040CA
:103A2000FDF744B830EE200AECE700005404002013
:103A30000000A0400000A0C0000000001C06002004
:103A4000DB0FC94000007042DA0F4940DB0FC9406C
:103A50005807002070B590ED053A0446F7EE003A9D
:103A6000F0EEC31AC0ED061A90ED084AF0EEC40A53
:103A7000C0ED090A90ED030AB0EEC01A80ED041AF9
:103A8000D0ED072A90ED0A2A32EEC20A80ED0B0A29
:103A900010EE100AB0F17C5F01DD30EE630A10EE2B
:103AA000100A84ED0B0AB0F13F4F01D930EE230A22
:103AB000774A10EE101A84ED0B0AB4F930009142E7
:103AC00001DC401C00E0401E00B2208694ED000A9C
:103AD0000121DFED703AF4EEC01A0026F1EE10FA83
:103AE0006D4D04D9B4EEC01AF1EE10FA0CD885F879
:103AF000341294ED050A84ED0D0A94ED070A84ED65
:103B00000E0A84F840603AE0B4EEC01AF1EE10FA02
:103B100006DDD4ED024AB4EEE41AF1EE10FA15D344
:103B2000F4EEC01AF1EE10FA40DD94ED021AF4EE54
:103B3000C11AF1EE10FA39D2F4EEC00AF1EE10FA21
:103B400034DDF4EEC10AF1EE10FA2FD294F84010F1
:103B500079B19FED520A64281DDB84ED0D3AC4ED66
:103B60000E2AD5ED940A30EEC00A00BF85ED940A06
:103B700078E0642808DB84ED0D4A84ED0E2A95ED8B
:103B8000940A30EE630AF1E71E286BDC84ED0D3AEF
:103B9000C4ED0E2A66E01E2864DC84ED0D4A84ED37
:103BA0000E2AD5ED940A30EE800ADFE794ED021A72
:103BB00094ED010AB0EE082AF0EE411A40EE021A26
:103BC000F4EEE01AF1EE10FA02D285F834623EE02B
:103BD000F0EE041A00EE211AB4EEE01AF1EE10FA3B
:103BE00031DD85F83412D4ED0D0A94ED121AB0EEE1
:103BF000E00AB0EEC11A30EE410A84ED110AB5EECA
:103C0000C00AC4ED120AF1EE10FA09D2F0EEC00AB1
:103C100010EE900A2249884202DD94ED130A0FE06B
:103C2000B5EEC00AF1EE10FA11DDB0EEC00A10EEEA
:103C3000100A1C4988420ADA95ED940A30EE630AAC
:103C400085ED940A03E095F8340285F8340294ED8A
:103C5000080A022084ED0D0A94ED0A0A84ED0E0A8A
:103C600084F8400094ED131AD4ED140A95ED940AEB
:103C700000F097FD85ED940AB4F93000782802DD54
:103C80007920208670BD0028FCDC268670BD0000EF
:103C9000CDCC4C3D17B75139540400200AD7A33C72
:103CA000000060420000604190ED0D1AD0ED060A60
:103CB00090ED0E0AD0ED051A21EE202A00EE612AC1
:103CC00020EE200A01EE210A80ED0F2A80ED100A75
:103CD00070470000F0B50020194C1A4A0125034630
:103CE00002EB80014E7826B1012E08D0022E21D1A0
:103CF0001BE012F82060EEB94B804D701AE012F80C
:103D00002060002E4E8805D0322E13D805EB4006D9
:103D100026700EE0761CB6B24E80322E0AD30226F2
:103D200006EB400727704E7004E012F82060012E69
:103D300000D14B70401CC0B20328D1D3F0BD0000AD
:103D4000240000202808002070B50A4D08212846CC
:103D5000FEF732F8084C102120702846FEF72CF8A8
:103D6000207104212846FEF727F82072BDE8704034
:103D7000FFF7B0BF001002402808002010B5094C22
:103D800020880A2805D014280AD1FFF7DDFF0A2071
:103D900005E06088642803D3002060801420208020
:103DA00010BD0000260000203EB50F4C207818B949
:103DB00006F0C8F8012020704FF6FF7003F012FBE8
:103DC00020201F2209A18DE807000346C8224FF4D6
:103DD000BE71962006F06FFC4FF41670FDF7F3FEEF
:103DE000BDE83E4003F002B91D000020424C4443B0
:103DF00020464F43000000002DE9FE434148007873
:103E000000287CD04FF6FF744FF4E1784A234246F5
:103E10001A214FF48770009406F070F83A4E30780B
:103E200005280ED2DFE800F0030507090B0037A0D4
:103E300008E039A006E03AA004E03BA002E03DA083
:103E400000E03DA018271F250097CDE901053B465E
:103E5000AA2228214FF4887006F02DFC86234246C2
:103E600056214FF49670009406F048F8344890F9C3
:103E70000000002801DB33A000E033A00097CDE96B
:103E800001051823822264214FF4977006F013FC79
:103E90004FF491734FF4D772D2219620009406F01C
:103EA0002DF896ED6F0A20254FF47844B5EEC00A40
:103EB000F1EE10FA18D225A00095CDE901042023D7
:103EC0001A46F221982006F0F6FBCDE9005496ED53
:103ED0006F0A0523F221B1EE400AB820BCEEC00AF9
:103EE00010EE102A09E00AE0BCEEC00ACDE9005449
:103EF00010EE102A0523F221B82006F0A3FBBDE83E
:103F0000FE8300001D000020540400206164635FF4
:103F100063616C696200000073746F7000000000E0
:103F20006572726F720000006964656E746966790B
:103F30000000000072756E00756E6B6E6F776E001C
:103F40001C00002063770000636377002D000000F1
:103F500070B5154C0025207890B101280AD00228B0
:103F600008D0052806D0062804D0032805D0042848
:103F700003D004E0FFF786FA01E0FFF77BFA257033
:103F800003F0CAF8094C60880A2805D014280AD121
:103F9000FFF732FF0A2005E0A088B0F57A7F02D350
:103FA000A5801420608070BD240000201E00002029
:103FB00070B50D4C20880A280CD0142812D10B4D56
:103FC00010212846FDF7FDFE20212846FDF7F9FEC9
:103FD0000A2006E06088B0F57A7F03D30020608075
:103FE0001420208070BD00002A0000200004024040
:103FF000FEE700002DE9F041884C02232546267992
:1040000095ED0E2AB7EE003ADFED851AD5ED1C0AC4
:104010000122697900209FED830A983516B1012E9F
:104020007ED1A2E0DFED803A7C4EB7EE084A4FF435
:104030007A67D6ED1F2A96ED091A41F2040651B1AE
:1040400001290FD002291FD0032936D0042943D0DB
:10405000052958D06BE084ED340A84ED330A2081C1
:1040600060816271D4ED334A20EEA45A65EE045AA1
:1040700085EEA25ADFED6D5A61EE255AF4EEC55A6F
:10408000F1EE10FA63D863716189491C89B26181CC
:10409000B94205D9D4ED0A4A74EEA04AC4ED0A4AE1
:1040A000B14244D3D4ED0A4A032164EEA14AC4EDDF
:1040B0000B4A608184ED0A0A6171D4ED334A20EE27
:1040C000A45A25EE045A85EE224AB4EEC41AF1EE43
:1040D00010FA43D8042161716189491C89B2618158
:1040E000B94224D994ED0A1AB14271EE200AC4ED06
:1040F0000A0A1CD360EEA10A0521C4ED0C0A6081F6
:1041000084ED0A0A6171D4ED0D0A94ED0C1AD4ED18
:104110000B1A72EE600A31EE611AC0EE811A00E0ED
:104120000CE0C4ED031A84ED330A6071227184ED52
:104130002B0A84ED2C3A2846FFF7B6FD94ED1F0AB2
:10414000284684ED370ABDE8F041FCF7AFBC74EEB9
:10415000A30AC4ED330AC4ED0D0AE8E774EEA30A1E
:10416000C4ED330AC4ED0E0AE1E7B9B1012924D048
:104170000229DCD1D4ED080A60EEA10AC4ED040ADC
:10418000C4ED060AC4ED050A607184ED080A608179
:1041900084ED330A84ED340AA271C8E710EE901A58
:1041A000234E84ED340A84ED330AB142BFD810EEB9
:1041B000901A204EB142BADC627184ED332A6189D3
:1041C0009FED1D2A491C89B2618194ED0C1A21EEE4
:1041D000021AF4EEC10AF1EE10FAA8DBD4ED030ADC
:1041E0009FED162A94ED081A60EE820A9FED142ABC
:1041F00020EE822A00EE901AF8EE600A02EE201AF3
:1042000084ED081A60812189491C89B2218160717D
:1042100084ED330A64298AD36371ABE75404002028
:104220000AD7233C0000000017B7D1389A99193FEC
:10423000CDCC4CBDCDCC4C3D3333733F0C02AB3EAB
:1042400017B751387A4800210170417007218170F9
:10425000012280F84C209FED770A80ED230A9FED24
:10426000760A80ED220A80F83C109FED740A80EDFA
:10427000100ADFED730A42F23413C0ED310AC0EDCB
:10428000320AA0F8E03041F67863A0F8E23080F816
:10429000C91180ED730A9FED6B1A80ED751A80F8D5
:1042A00094110221A0F89A1143F6FF71A0F89C1115
:1042B0009FED651A80ED6E1A9FED641A80ED6B1A02
:1042C0009FED631A80ED091AB2EE0C1A80ED801A88
:1042D00080ED7D0AC0ED8B0A80EDA60ADFED5D0A58
:1042E000C0EDB00ADFED5C0AC0EDB10A9FED5B1ACC
:1042F00080EDB61A80F83422DFED590AC0ED940A39
:1043000080F8DC22DFED571A0021C0EDC21AF3EE6F
:10431000041AC0EDC31A80EDB80A80EDC81A80F8FF
:10432000241380F82513A0F828139FED4F0A80ED81
:10433000CB0A9FED4E0AB0EE081A80EDCC0A80ED54
:10434000CD1AA0F8381380EDCF0A80EDD00A80EDA9
:10435000D10A80EDD20A80EDD30A80EDD60A80ED35
:10436000D70A80F86013A0F86213A0F864139FEDD9
:10437000401ADFED401A9FED402A80EDDF0A00F57C
:104380005B7181EC031A0021C0EDE01A80EDE12A97
:1043900080EDE21A80EDE50A80EDE60A80EDE70A9D
:1043A00080EDE80A80EDE90A80EDEA0A80EDEB0A8B
:1043B000A0F8B01380EDED0A80EDEE0A80EDEF0A73
:1043C00080F8C013B1EE040A80EDF30AC0EDF40AE0
:1043D0009FED2A0ADFED2A0A80ED3B0AC0ED3C0A78
:1043E000B2EE041A80ED451AFAEE041AC0ED461A30
:1043F00080ED490AC0ED4A0A80ED531A9FED210A6B
:10440000C0ED541ADFED200A80ED570AC0ED630AB3
:1044100080ED640A9FED1D0A80ED580AB1EE080A8E
:1044200080ED610AB9EE080A80ED620A704700006B
:10443000540400200000843B0000843C17B751382E
:10444000CDCCCC3D000096450AD7A33C007C124958
:104450009A99193F000096440000C8420AD7233CAD
:104460003333B33F00006144CDCC4C3D000000002D
:104470000040834500803B450000FA44CDCC4C3ED3
:104480006F12033B6F12833A0AD7A33BBD37063640
:10449000FFF7D8BE70B52B4C04F14C0594F84D00D5
:1044A000012817D12846FCF7CDFA2846FCF7DBFA9D
:1044B000D4ED1F0A9FED240A9FED241A20EE800AF6
:1044C00060EE810A84ED530AC4ED540A84ED450A76
:1044D000C4ED460A2078002105281FD2DFE800F04D
:1044E000032D230C1F002846FCF779FA94F84D00A1
:1044F000012813D1032010E0FFF77CFDA0790128EB
:104500000CD194ED030A84ED7E0A94ED060A84ED45
:104510007F0A2078022801D00420207070BDBDE8F9
:10452000704000F04FB9A4F8E410A4F8E610A4F825
:10453000E81001202070617070BD24F8E41F6180D4
:10454000A18070BD5404002036CD133F36CD13BF7B
:10455000704790ED030AD0ED040A30EE600A80ED5A
:10456000060A90ED051AD0ED0A1AD0ED0B0AB4EE4A
:10457000E11AF1EE10FA0CD2B4EEE01AF1EE10FAF4
:1045800007DD90ED091A90ED012A02EE001A80ED88
:10459000091A90ED091A90ED002AD0ED022A02EED8
:1045A000001A90ED072A30EE422A02EE821A80EDC0
:1045B000051AB4EEE11AF1EE10FA01DBC0ED051AAE
:1045C00090ED051AB4EEE01AF1EE10FA01D8C0ED44
:1045D000050A80ED070A704790ED0A0AD0ED020A3D
:1045E00090ED031A90F9001020EE200AD0ED090A90
:1045F000B7EE002A244A00EE810A00EE901AF8EE87
:10460000E00A60EE200AC0ED040A90ED0B0A20EEED
:10461000201A80ED0D1A90ED0E0AD0ED0C1A01EE65
:10462000A00A80ED0E0A71EE000AC0ED0F0A90EDAF
:10463000110AD0ED101A20EE801A32EE400A01EE77
:10464000801A80ED101A90ED050A90ED011A00EE27
:10465000810ADFED0E0A10EE101A80ED050A914274
:1046600002DD30EE600A06E0B5EEC00AF1EE10FAA7
:1046700003D230EE200A80ED050A80EE201A80ED8C
:10468000070A80ED081A7047D00FC940D00FC94003
:1046900090ED031AD0ED060A90ED040AD0ED051A4C
:1046A00021EE202A00EE212A20EE200A01EE610AE6
:1046B00080ED072A80ED080A7047704790ED080AE0
:1046C000D0ED0B1AD0ED020AD0ED002A30EE610ACF
:1046D0004FF07E53314A80EE201A90ED010AB1EE80
:1046E000400A80EE203A90ED060A03EE001A02EE30
:1046F000810A80ED060A90ED091A90ED0D2A31EE3F
:10470000421AC1EE203A90ED071A43EE013A02EE4A
:10471000A31A80ED071AD0ED040A70EE600A90ED3E
:10472000030A10EE901A994202DD80ED0A0A0AE0AF
:1047300010EE901A914202D9F1EE400A01E060EECB
:10474000800AC0ED0A0AD0ED050A71EE600A10EE8B
:10475000901A994208DC10EE901A914202D9B1EEFB
:10476000400A01E020EE800A80ED0C0AD0ED0A0A32
:1047700090ED0E0A20EE801AF7EE000A70EEC00AE5
:1047800001EEA01A80ED0B1A90ED0C1A21EE000A32
:1047900002EE200A80ED0D0A70470000000080BF85
:1047A0007047B4EEC10AF1EE10FA02DBB0EE410A36
:1047B0007047B4EEE00AF1EE10FAF9D8B0EE600AF4
:1047C000704700000B488078082811D2DFE800F01D
:1047D000100406080A0C100E00F07EB800F00CB8A9
:1047E00000F0A4B8FEF75EBEFFF74AB8FEF7F0BED1
:1047F000704700005404002070B5364C2DED028B3C
:10480000B7EE008A84ED4C8A94ED700A04F5E470EA
:1048100084ED740A00F0A6FC94ED790A04F13C00E2
:1048200084ED110AFCF71EFB04F1B00194ED120AAD
:10483000081FFCF737FA94ED1C0A04F1980084ED88
:10484000260A94ED1D0A054684ED270AFCF794FA22
:104850002846FFF71DFFD4ED2D0A94ED310A94EDA3
:104860002F1A04F1EC0060EE800A38EE400A41EEA7
:10487000000AC4ED2F0A94ED2E0A94ED321AD4EDFD
:10488000301A20EE010A38EE411A01EE810A84ED59
:10489000300A84ED3F0AC4ED4D0AFFF75AFE04F5D5
:1048A0009270FFF756FE94ED400A284684ED340AD4
:1048B00094ED4E0A84ED330AFFF7F6F994ED1F0AE2
:1048C000284684ED370ABDEC028BBDE87040FCF74A
:1048D000EDB800005404002070B5134C04F5E470EA
:1048E00094ED700A84ED740A00F03CFC94ED790AB2
:1048F00004F13C0084ED110AFCF7B4FA04F1B001B4
:1049000094ED120A081FFCF7CDF904F19800054652
:10491000FFF7CAF994ED1F0A284684ED370ABDE86F
:104920007040FCF7C3B800005404002070B5A84CD8
:104930002DED048B94ED1F0ADFEDA60A04F5E4705B
:1049400020EE200A84ED800A94ED700A84ED740A4A
:1049500000F008FC94ED790A04F13C0084ED110AA2
:10496000FCF780FA94ED030A04F5FA7084ED7E0AF0
:1049700094ED060A84ED7F0A94ED290A84ED810AFC
:1049800094ED2A0A84ED820A94ED350A84ED850AB5
:1049900094ED360A84ED860AFFF790FE94F8C8017C
:1049A00084F8940294ED880A04F5257084EDA70A32
:1049B00094ED8A0A84EDA80AFFF70EFE04F52F7124
:1049C00094EDAD0A081FFCF76DF994ED790A84EDBA
:1049D000D20AD4EDB50ADFED808A80EEA80A9FEDF9
:1049E0007F9A20EE090A84EDD30A94ED120A84ED31
:1049F000CF0A94EDAD0A84EDD00A94F8F00184F862
:104A0000260304F5497000F0F1F894EDD30AF1EEB5
:104A10000C0A80EE201A84ED6F1A94F860139FED53
:104A2000708A002009B3B4F8641369B994ED740A6C
:104A300084EDDA0A84ED748A84ED798A84ED768ACD
:104A400084ED788A84F82403491C89B241F28832C3
:104A5000A4F86413914210D3A4F8640384F86003AB
:104A600094EDDA0A84ED740A07E094F8241301291E
:104A700003D194EDAD0A84ED120AB4F89811491CE3
:104A800089B2A4F8981102291DD3A4F8980194EDD5
:104A9000790A84ED5A0A94EDB50AC0EE280A20EE90
:104AA000890A84ED5B0A94F8240301280BD14D4850
:104AB000FFF74FFD94F8250328B994EDCB0A84ED58
:104AC000600A84ED5C0A94F8240384F8250394EDCD
:104AD0001C0A3F4884ED260A94ED1D0A983084EDA7
:104AE000270A0546FCF748F9394894F8242300F1D1
:104AF000B001AC305AB394EDAD0A00BFFCF7D2F868
:104B00002846FFF7C5FDD4ED2D0A94ED310AF7EEE6
:104B1000001A20EE801A31EEC00AD4ED2F0A00EE02
:104B2000801A84ED2F1A94ED2E0AD4ED320A94EDFA
:104B3000302A20EE200A71EEE00A02EE200A84ED0F
:104B4000300A94F8240328B1D4ED5C0A1AE094EDFD
:104B5000120AD3E7D4ED5A0A2349F0EEE00A10EE28
:104B6000900A88420CDA84ED608A84ED5C8A84EDD8
:104B70003E8A84ED878A84ED898A84EDB48A05E0D3
:104B8000D4EDCB0AC4ED3E0A84ED4C8A154884ED81
:104B90003F0A84ED4D1A7038FFF7DBFC11483838B6
:104BA000FFF7D7FC94ED400A284684ED340A94EDD3
:104BB0004E0A84ED330AFFF777F894ED1F0A284672
:104BC00084ED370ABDEC048BBDE87040FBF76EBF87
:104BD0005404002036CD133FDB0FC9400000704263
:104BE00000000000B00500200000204110B5044680
:104BF0002DED048B90ED060AD0ED070A30EE600A29
:104C0000F7EE000A80ED080A10EE100AB0F17C5FA2
:104C100001DD30EE600A10EE100A84ED080AB0F1F2
:104C20003F4F01D930EE200A84ED080AD4ED091A6D
:104C300094ED0A1A31EEC12A84ED0D2AD4ED0E0A44
:104C400032EE602ADFED782AB0EEC00A10EE101ABC
:104C500042EE220A754A9142C4ED0E0AF0EEE10AD4
:104C6000C4ED0B0AF0EEC10AC4ED0C0AB4F914004D
:104C700001DC401C00E0401EA0822078012812D1F7
:104C8000A088401C80B200EE100AA080B8EE400A56
:104C90009FED671ADFED670AFFF783FDBCEEC00AE0
:104CA00010EE100AA08094ED041A9FED630AA0781C
:104CB00021EE008ADFED618A9FED619A02282BD0F8
:104CC000D4ED0B1A94ED120AF4EEC01AF1EE10FABC
:104CD0000CDBB4F914001E2808DC94ED020AF0EE97
:104CE000680AB0EEC00A30EE480A0EE0F4EEC01AD0
:104CF000F1EE10FA46D294ED020AB0EEC00ADFEDF2
:104D0000510A30EE200AF0EE490AFFF74AFD84ED21
:104D1000020AA078022835D1D4ED120AB1EE041AA5
:104D200094ED0B0A70EE810AB4EEE00AF1EE10FA8F
:104D300013D2D4ED140AB4EEE00AF1EE10FA0CDD51
:104D400094ED020AB0EEC00ADFED3F0A94ED041ABA
:104D500030EE200AF0EE490A10E0D4ED140AB4EE69
:104D6000E00AF1EE10FA0DD294ED020A94ED041A65
:104D7000F0EE680AB0EEC00A30EE480AFFF711FD07
:104D800084ED020A94ED090AB5EEC00AF1EE10FABC
:104D900007D294ED020AB0EEC00AB1EE400A84EDEB
:104DA000020A227801210020012A14D1A28844F6A7
:104DB00020639A420FD994ED0C0AD4ED140AB4EE94
:104DC000E00AF1EE10FA06D884F83C10A080E18FDA
:104DD000491CE1871BE0B4F91420282A0CDD94ED6E
:104DE0000B0AD4ED120AB4EEE00AF1EE10FA03DB7E
:104DF00084F83C0021700EE094ED0B0AD4ED130A08
:104E0000B4EEE00AF1EE10FA01D2A0802070B4F9FD
:104E10001410282901DD292001E0002900DAA082F0
:104E2000BDEC048B10BD0000CDCCCC3DCDCC4C3DB9
:104E300000401C470000000052499D390AD7A33D9D
:104E4000CDCC4C3D0AD7233C6F12833AFCF7D2BF3E
:104E50000248016841F470010160704788ED00E08C
:104E60000148FDF733BE0000C40300200148FDF7F0
:104E70002DBE00007C030020F0B50268254C264DB5
:104E8000264E274F274B4FF0804CA04209D060455B
:104E900007D0A84205D0B04203D0B84201D0984212
:104EA00004D122F0700E4A6842EA0E02A0421BD0E2
:104EB000604519D0A84217D0B04215D0B84213D0DF
:104EC000984211D0184DA8420ED0184DA8420BD0D0
:104ED000174DA84208D0174DA84205D0164DA8423C
:104EE00002D0164DA84203D122F44075CA682A4365
:104EF0004D6922F080022A4302608A68C2620A6811
:104F00008262A04201D0984201D109690163012166
:104F10004161F0BD00000140000400400008004075
:104F2000000C0040000401400040014000440140EA
:104F30000048014000180040001C004000200040D4
:104F400010B501F01F030121046A99408C430462EB
:104F5000016A9A401143016210BD10B501F01F03B0
:104F60000421046A99408C430462016A9A40114307
:104F7000016210BD10B5846842EA032224F47F4424
:104F80000A432243826010BD826822F070020A4305
:104F900042F0070181607047F0B5026A22F0010219
:104FA0000262036A42688469124E24F073050C6839
:104FB0002C4323F002058B682B430D4DA84201D0F2
:104FC000B04205D123F00807CB683B4323F004032C
:104FD000A84201D0B04205D14D6922F44072154378
:104FE0008A692A4342608461496841630362F0BD73
:104FF0000000014000040140F0B5026A22F01002F6
:105000000262026A436884690D6824F4E64444EA53
:1050100005248D6822F0200242EA05120F4D104E41
:10502000A84201D0B04206D1CF6822F0800242EA05
:10503000071222F04002A84201D0B04207D14D69C8
:1050400023F4406343EA85038D6943EA85034360A3
:105050008461496881630262F0BD00000000014084
:1050600000040140F0B5026A22F480720262026A12
:105070004368C46922F4007224F073050C68124E70
:105080002C438D6842EA05220E4DA84201D0B04261
:1050900006D1CF6822F4006242EA072222F480623D
:1050A000A84201D0B04207D14D6923F4405343EAEE
:1050B00005138D6943EA05134360C4614968C16300
:1050C0000262F0BD000001400004014030B5026AF8
:1050D00022F480520262046A4268C3690D6823F4B4
:1050E000E64343EA05238D6824F4005444EA05347A
:1050F000084DA84202D0084DA84204D14D6922F4BF
:10510000804242EA85124260C361496801640462D8
:1051100030BD0000000001400004014010B5036AEA
:10512000046A24F001040462846924F0F00444EA6F
:10513000021423F00A020A438461026210BD10B512
:10514000036A23F0100303628369046A23F4704343
:1051500043EA023224F0A00343EA011182610162B2
:1051600010BD0000D0ED020A9FED321A80EE810AD8
:10517000D0ED010A20EE200A80ED040AD0ED031ADA
:1051800081EE812A62EE201A21EEA02A80ED052A06
:10519000D0ED061AF4EEC01AF1EE10FA09D271EE53
:1051A000821AC0ED061AF4EEC01AF1EE10FA0ADA0D
:1051B0000BE00ADD71EEC21AC0ED061AF4EEC01A59
:1051C000F1EE10FA01D880ED060AD0ED061A90ED46
:1051D000090AB0EEE12A32EE400A80ED080AB5EE87
:1051E000C00A80ED092AF1EE10FA01DD002107E086
:1051F000B5EEC00AF1EE10FA01D2022100E0012161
:10520000F5EEC01A80F82810F1EE10FA02DD4FF02A
:10521000FF3100E0012121EE810A0170417880EE2A
:10522000201A00EE101AB8EE400A21EE000A80EDB6
:10523000070A7047000070420F48DFED0E0A8178C0
:10524000082910D2DFE801F00F04040410040F0451
:105250000A4991F9001000EE101AB8EEC00A20EECB
:10526000200A80ED700A70479FED050A80ED3E0A26
:105270007047000000007A44540400201C00002005
:105280000000000010B5806B0021C185C184FDF7CE
:1052900029FE10BD70B5846B2068406994F83D10FC
:1052A000C0F3C0100025212904D118B1E58420469F
:1052B00000F049F82068406994F83E10C0F380106F
:1052C000222904D118B1E585204600F024F8206C8D
:1052D00040F0100020642046FDF704FE70BD10B5BC
:1052E0000146806B09680968C9050CD40021C18496
:1052F00001684A6922F080024A610068C16841F091
:105300004001C16010BDFDF7F7FF10BD10B5806B07
:10531000FDF7F3FF10BD0168CA6822F49072CA60FD
:1053200001684A6922F001024A61016B012904D136
:105330000168CA6822F01002CA60202180F83E107D
:105340000021016370470168CA6822F0C002CA6088
:10535000202180F83D10704710B5044690F83E00BB
:10536000222801D0022010BDA1684FF48052914242
:1053700001D1206920B1A06A91421BD049B10AE055
:105380002168A06A4968C1F308010180A06A801CF5
:1053900008E0216971B12168496801F07F0101705D
:1053A000A06A401CA062E08D401E0004000CE08555
:1053B00003D01CE021684968F1E72068C16821F04A
:1053C0002001C1602068C16821F48071C16020683B
:1053D000416921F001014161202084F83E00206BE9
:1053E000012806D02046FDF71BFF00202063002087
:1053F00010BD2068C16821F01001C160A18D204658
:10540000FDF76FFDF1E7000070B504460068016923
:10541000E26821F44051114301612169A068E26909
:1054200008436169114308432168CA6849F20C6363
:105430009A430243CA6020684169A26921F440711D
:105440001143416131492068884202D03049884285
:1054500002D1FCF7F7FD01E0FCF7E4FDE26900236F
:10546000192164253226B2F5004F626828D0A0FBCE
:105470000101930F9200FAF7ABFE0146B0FBF5F085
:105480006FF01802504301EB800006EB0010B0FBF8
:10549000F5F000F0F002B1FBF5F002EB0012B1FB09
:1054A000F5F06FF01803584301EB800006EB001095
:1054B000B0FBF5F000F00F0021681044886070BD6B
:1054C000A0FB010192185B41FAF782FE0146B0FB96
:1054D000F5F00201B1FBF5F06FF01803584301EB52
:1054E000800006EBC000B0FBF5F000F0F80002EB26
:1054F0004002B1FBF5F0584301EB800006EBC00021
:10550000B0FBF5F000F00700D6E700000010014006
:105510000014014081628285C2850021016422223B
:1055200080F83E2080F83C100168CA6842F480721E
:10553000CA6001684A6942F001024A610068C168B4
:1055400041F02001C16000207047000070B50024C8
:105550000C4D0D48FDF7CCFC02E0641CAC4204D8B5
:105560000948FDF7C0FC2028F7D1002402E0641CA4
:10557000AC4206D8012205490348FDF73BFE00284E
:10558000F5D170BDFFFF01004C0100200800002094
:10559000FEE7000070B51D4C228800211C480A2639
:1055A000052A08D00A2A0DD0142A11D1194D2968CC
:1055B0004A6872B128E001734173802181737F21B1
:1055C000C17321E06088002802D06180142020800F
:1055D00070BD114A92ED1C0A80ED000A92ED1D0A81
:1055E00080ED010A92ED1E0A80ED020A086820F0A3
:1055F00001000860102206490848FDF73DFE2868B2
:10560000016841F001010160268070BD2E0000207C
:10561000340800201C03002054040020D80200207D
:105620000FB4054B10B503A9044A029800F0FEF828
:1056300010BC5DF814FB0000FD6800080C000020A1
:105640000FB4084B10B504A902AA039800F0EEF8B5
:10565000044602A9002000F080FC204610BC5DF842
:1056600014FB00005B5F00080907090E002804DB3B
:1056700000F1E02080F80014704700F00F0000F106
:10568000E02080F8141D704702E008C8121F08C10E
:10569000002AFAD170477047002001E001C1121FB3
:1056A000002AFBD1704700002DE9FF5F82B0002186
:1056B000DDE90430020DDDF840B0034318D044F6B4
:1056C0001050A2F2FF3242431514119801281FD046
:1056D000A5EB0B00401C5FEA000A4FF000064E4F9E
:1056E000DFF83891B046504615D5CAF1000413E0F2
:1056F000119801244AA3012801D16FEA0B010298F5
:10570000119AC0E90031C0E9024206B0BDE8F09F3D
:10571000CBF10000DFE704460021404A491842EB84
:105720000450CDE9001012E0E00707D032463B46B6
:1057300040464946FAF79DFD8046894632463B463B
:1057400010461946FAF795FD06460F466410002CE0
:10575000EAD1DDE90401DDE90023BAF1000F06DA40
:10576000FAF787FD42464B46FAF783FD05E0FAF764
:10577000F2FD42464B46FAF7EEFD04460E46002285
:10578000284BFAF7A7FE03D84FF0FF30014607E099
:105790000022254B20463146FAF746FFFAF7EBFF89
:1057A000102409E0002C0ADB0A220023FAF710FD7E
:1057B000039B30321A55641E50EA0102F2D1641C78
:1057C000039AC4F111031444119A012A03D001224F
:1057D00008430DD10AE0084304D000204FF0110B1C
:1057E000119072E7A3EB0B056D1E0DE05B4504DD28
:1057F0004FF0000205F1010504E003DA4FF000026A
:10580000A5F10105002AECD002981199C0E90231F6
:10581000C0E9004579E70000000014400000F03FB7
:10582000300000000000F0430000E03F2DE9FF4F92
:1058300095B09B468946064600250FE2252877D17C
:1058400000242746F84A0121059400E0044316F895
:10585000013F203B01FA03F01042F7D130782A28AB
:1058600011D06FF02F033078A0F13002092A16D83A
:10587000059A44F0020402EB820203EB4202104458
:10588000761C0590EFE759F8042B0592002A03DAFD
:10589000504244F40054059044F00204761C3078E1
:1058A0002E2816D116F8010F44F004042A280DD032
:1058B0006FF02F023078A0F13003092B09D807EBE5
:1058C000870302EB4303C718761CF3E759F8047B00
:1058D000761C30786C280FD006DC4C2817D068284E
:1058E0000DD06A2814D104E0742810D07A280FD182
:1058F0000DE044F400140AE044F4801401E044F4A0
:1059000040147278824202D104F58014761C761C11
:10591000307866280BD013DC582877D009DC0028B3
:1059200075D04528F6D04628F4D047281AD19DE1F5
:1059300018E0632835D0642879D0652812D195E124
:10594000702873D008DC6728F1D069286FD06E28E2
:105950000DD06F2806D1B5E073282CD0752875D0EE
:10596000782874D05A46179990476D1C75E1C4F396
:105970000250022809D003280DD0D9F800100428BD
:105980000DD00D6009F1040967E1D9F80010EA179C
:10599000C1E90052F6E7D9F800100D80F2E70D706A
:1059A000F0E719F8041B8DF8001000208DF80100B5
:1059B000EA46012003E059F804AB4FF0FF306107DD
:1059C0004FF0000102D40DE008F101018846B94210
:1059D0000FDA8045F8DB1AF808100029F4D108E046
:1059E00008F1010188468142FADB1AF80810002903
:1059F000F6D105985B46A0EB080721463846179A72
:105A000000F094FA284400EB080507E04DE029E196
:105A10000DE01AF8010B5A4617999047B8F10108A2
:105A2000F7D25B4621463846179A13E142E00A2234
:105A30000092C4F302524FF0000A022A08D059F82B
:105A400004CB032A4FEAEC710AD00DE029E02AE0EA
:105A500009F1070121F00702F2E802C1914609E0CD
:105A60000FFA8CFC4FEAEC71042A03D14FFA8CFC3C
:105A70004FEAEC71002907DA0A460021DCF1000C3C
:105A800061EB02012D2202E0220504D52B228DF8C4
:105A90000420012203E0E20701D02022F7E790462C
:105AA00059E00A2102E010220DE010214FF0000A17
:105AB00000910BE010224FF0000A44F00404082784
:105AC000009203E008224FF0000A0092C4F3025251
:105AD000022A05D059F804CB0021032A08D009E096
