:020000040800F2
:100000008815002059020008932F00088F2F000840
:10001000912F0008151800089D3500080000000009
:10002000000000000000000000000000A9300008EF
:100030008F18000800000000952F0008AB30000862
:100040007D0200087D0200087D0200087D02000894
:100050007D0200087D0200087D0200087D02000884
:100060007D0200087D0200087D0200087D02000874
:100070007D0200087D0200087D0200087D02000864
:100080007D0200087D0200087D0200087D02000854
:100090007D0200087D0200087D0200087D02000844
:1000A0007D0200087D0200087D0200087D02000834
:1000B0007D0200087D0200087D0200087D02000824
:1000C0007D0200087D0200087D0200087D02000814
:1000D0007D020008593500087D0200087D020008F5
:1000E0007D0200087D0200087D0200087D020008F4
:1000F000CD3000087D0200087D0200087D02000866
:100100007D0200087D0200087D0200087D020008D3
:100110007D0200087D020008C13000087D02000851
:100120007D0200087D0200087D0200087D020008B3
:100130007D0200087D0200087D0200087D020008A3
:100140007D0200087D0200087D0200087D02000893
:100150007D0200087D0200087D0200087D02000883
:100160007D0200087D0200087D0200087D02000873
:100170007D0200087D0200087D02000800000000EA
:100180007D0200087D02000800F002F800F055F83A
:100190000AA090E8000C82448344AAF10107DA45E2
:1001A00001D100F04AF8AFF2090EBAE80F0013F0DF
:1001B000010F18BFFB1A43F001031847C0E300000A
:1001C000E0E30000103A24BF78C878C1FAD852079B
:1001D00024BF30C830C144BF04680C6070470000C1
:1001E0000023002400250026103A28BF78C1FBD840
:1001F000520728BF30C148BF0B60704766290AF01C
:10020000ED87642900F03681752900F03381782963
:1002100000F06C81732900F0C485002070471FB581
:100220000AF0D7FF00F0FCFD0400002000210AF0D6
:1002300011FCE0601FBD10B510BD00F0F5FE1146C9
:10024000FFF7EDFF08F0A6FA00F013FF03B4FFF785
:10025000F2FF03BC03F0D2F90C48016841F47001CD
:1002600001600B4880470B480047FEE7FEE7FEE7CA
:10027000FEE7FEE7FEE7FEE7FEE7FEE7FEE700003B
:1002800005480649044A064B7047000088ED00E027
:10029000B130000889010008880500208815002079
:1002A00088050020704753EA020C00F069802DE9B0
:1002B000F04B4FF00006002B1FBFB3FA83F503FA93
:1002C00005F424FA05F65E4012BF1643B2FA82F531
:1002D00002FA05F4C5F120051EBF22FA05FC44EA26
:1002E0000C04203556EA044C4FEA144418BF641C31
:1002F0004FF000084FF00009904271EB030C39D326
:10030000002919BFB1FA81F701FA07F6B0FA80F7B0
:1003100000FA07F6C7F120071EBF20FA07FC46EADD
:100320000C062037B6FBF4FCA7EB0507103F07F0DF
:100330001F0BCBF120060CFA0BFB2CFA06F644BF80
:10034000B3460026202FA4BF5E464FF0000B5BEAA9
:10035000060C08BF4FF0010B19EB0B09ABFB027C3D
:1003600048EB0608C01B06FB02CC0BFB03CC71EB71
:100370000C01C1E70B46024641464846BDE8F08BFA
:1003800013B54FF000004FF00001AFF30080BDE85F
:100390001C4070470FB4044910B503AA029800F03E
:1003A00005FD10BC5DF814FB180000200FB41CB54F
:1003B000074B06AA7B4469460090059800F0C7FCED
:1003C0000020694600F0D6FC1CBC5DF814FB000060
:1003D000BD09000070B5044685690068C10601D5F5
:1003E000302600E02026C00707D070BDD4E90121E7
:1003F00030469047206A401C20626D1EF6D570BDC5
:1004000070B5044685690078C00707D170BDD4E98E
:10041000012120209047206A401C20626D1EF6D5E5
:1004200070BD70B50C460546012A05D028788006B7
:1004300000D5EA69002302E0012305E05B1C93423A
:1004400002D2E05C0028F9D1A869E618C01AA861B8
:10045000286A184428622846FFF7BCFF04E0D5E963
:10046000012114F8010B9047B442F8D32846FFF756
:10047000C7FF70BD2DE9F0410646002410687529BC
:10048000314616A510D0AFF30080002802DA4042B2
:1004900013A507E031688A0701D512A502E04907D4
:1004A00004D511A5012401E0AFF3008000210A2248
:1004B00006F1240709E0B0FBF2FCB0FBF2F302FB0B
:1004C0001C00303078541846491C0028F3D12346CC
:1004D0002A463046BDE8F04100F0CCB900000000EB
:1004E0002D0000002B0000002000000070B5044625
:1004F0000D4621461068AFF300802188090502D51A
:100500000F4A7A4402E00E4A7A440E32002104F186
:10051000240305E000F00F060009965D5E54491CB7
:100520000028F7D120780023000704D5702D02D0D1
:1005300009B1022311322046BDE8704000F09AB99B
:1005400096DD00002DE9F05F894604464FF0000A71
:10055000DFF874B1FB44C0F820A02046E16888476A
:10056000002874D0252806D0D4E901219047206ABC
:10057000401C2062F1E700265F462046E16888477C
:100580002028054607DB312D05D2781910F8200CFC
:1005900008B10643F1E7B00701D526F00406C4F818
:1005A0001CA00027C4F818A02A2D09D0284603F063
:1005B0001EF838B304EB8708303DC8F8185019E02E
:1005C00059F8041B204604EB87029161E1688847D3
:1005D000012F054618D1E069002820DA26F0200610
:1005E0001DE0D8F8180000EB800005EB4000303823
:1005F000C8F818002046E1688847054602F0F7FF72
:100600000028EED1012F0AD02E2D08D12046E16816
:1006100088477F1C0546022F46F02006C4DBA069F0
:10062000002803DA404246F00106A061F00701D03D
:1006300026F010066C2D0BD0682D09D04C2D39D02A
:100640006A2D35D0742D35D07A2D33D016E038E0B0
:10065000E1682F4620468847B842054609D16C2FED
:1006600026D04FF48060E16806432046884705465F
:1006700004E06C2F1AD04FF4807006430DB3A5F13F
:100680004100192802D8203546F400664A4629461A
:10069000204626604E46FFF7B1FD80B101280BD001
:1006A000F61D26F0070000F1080956E74020E4E7B0
:1006B0008020D8E70020D6E706F104094DE7284658
:1006C00052E7206ABDE8F09F6CDD000040EA0103BC
:1006D000024630B59B0710D14FF0013400E008C24C
:1006E00008C91D1B9D4315EAC41FF8D013F0FF0174
:1006F00002F8011B0DD01B0AF8E711F8013B002B93
:1007000002F8013B05D011F8013B002B02F8013B38
:10071000F3D130BD10B5431C02E010F8011B71B1DC
:100720008107FAD14FF0013202C88C1A8C4314EAC7
:10073000C211F9D0C01A0A0603D0C01E10BDC01ADB
:1007400010BD0A0401D0801E10BD0902FCD0401E5D
:1007500010BD4FF000020429C0F0128010F0030C0D
:1007600000F03883CCF1040CBCF1020F18BF00F884
:10077000012BA8BF20F8022BA1EB0C0100F02ABB33
:100780005FEAC17C24BF00F8012B00F8012B48BFB1
:1007900000F8012B704710B5044610F0030F08BF96
:1007A00011F0030F40F015804FF0013E121FC0F210
:1007B0000E8051F8043BA3EB0E0C2CEA030C1CEA50
:1007C000CE1C08BF40F8043BF0D0A1F1040102F1B7
:1007D0000402521E08DB11F8013B002B00F8013B1C
:1007E000F7D11146FFF7B5FF204610BD4FF0013C91
:1007F00050F8042B51F8043B9A4221D1A2EB0C0390
:10080000934313EACC1317D150F8042B51F8043B4F
:100810009A4215D1A2EB0C03934313EACC130BD1EC
:1008200050F8042B51F8043B9A4209D1A2EB0C0377
:10083000934313EACC13DBD04FF00000704700BFA6
:10084000D01A01BAB1FA81F101F0180122FA01F0CF
:10085000CB40C1F12001DBB2C0B2C01A2CFA01F3C7
:10086000D11A914311EAC311E6D17047704770471E
:10087000704770472DE9F0470D4699469246044669
:1008800000F124080168880604D5E06921F0100110
:10089000216000E00120A84201DD471B00E00027A5
:1008A000A1697A1902EB0900081AA0612078C00634
:1008B00002D42046FFF78EFD002608E0D4E901218E
:1008C0001AF806009047206A401C761C20624E45AC
:1008D000F4DB2078C0060AD52046FFF77BFD06E052
:1008E000D4E9012130209047206A401C2062381E44
:1008F000A7F10107F4DC07E0D4E9012118F80500AD
:100900009047206A401C2062281EA5F10105F3DCF7
:100910002046FFF775FD2078000602D50220BDE8CD
:10092000F0870120FBE770472DE9FF4F0C461E467C
:100930004FF0FF378BB0D2E90001DDF860800A90FC
:100940008A46C1F30A5505B93D46002108464FF0D5
:100950000000BAF1000F00F4400005DA00EB80005F
:100960004FF4400101EA50004FEA9059B9F1010FEC
:1009700000DDB9460A9850EA4A000ED044F61050FD
:10098000A5F2FF3545432F14B8F1000F1ED0754274
:10099000291E1EDDC9F100021CE0B8F1010F4FF065
:1009A000000001D0302103E0F24305E02154401C57
:1009B000B042FBDB30460022002121540B99C1F8E4
:1009C0000880C1E900200FB0BDE8F08FBD1B6D1C91
:1009D000DEE74A4600DA694206A800F0ABFA06AB49
:1009E00093E8070003AB83E8070050460A9900F03C
:1009F00049FB8DE80700A0F500501F3800900398D0
:100A0000002D0ADD42F21F014A460844002303A9D3
:100A10000390684600F0B2FD09E0A0F500504A4698
:100A20001F38002303A90390684600F0BCFD8DE841
:100A300007000004000C03D04FF0FF30410800E035
:100A40001046B8F1000F03D00022009215461EE0B8
:100A5000751E05D400F0E8F9303262556D1EF9D5E7
:100A6000B3460122084302D000227F1C04E0207814
:100A7000302801D100227F1E002A099784D01DE072
:100A8000112D07DA00F0D0F9303262556D1C50EAB2
:100A90000102F5D1084302D00098C8B10EE0002150
:100AA000681E05E0235C625C63542254401E491CAE
:100AB0008142F7DBAB46A81B401E0990002004F8DA
:100AC0000B000B98099AC0F80880C0E9002B7AE760
:100AD00011264FF0000857E72DE9F04F88460446ED
:100AE000D21D22F0070191B0D1E90001CDE90A0140
:100AF00002F055FD02460B98C00F01D02D2007E0F3
:100B00002068810701D52B2002E0202101EAC000E6
:100B1000032A099001D0072A05DB034641462046F7
:100B200000F0C8F90BE12078800601D5E06900E00B
:100B30000620B8F1650F814606D0B8F1660F18D0CF
:100B4000B8F1670F70D131E00020B9F1110F0090BA
:100B500001DB112301E009F101030AAA01A90CA894
:100B6000FFF7E2FEDDE90C70002609F1010583467E
:100B700047E001204B4600904FF000470AAA01A928
:100B80000CA8FFF7D1FEDDE90DB00C995D460026FB
:100B900010B909F101000D18B9EB050003D4C0F13B
:100BA000FF3609F10105A5EB09002BE0B9F1010FB2
:100BB00001DA4FF001090020B9F1110F0090484609
:100BC00001DD112300E003460AAA01A90CA8FFF7E2
:100BD000ABFEDDE90C704D46002683462078000709
:100BE0000AD4AB4500DA5D4601A8012D04DD4119A8
:100BF00011F8011C302907D04F4502DA17F1040F14
:100C000004DA012082460FE06D1EEEE7002F02DCC1
:100C1000ED1B3E4403E0781CA84200DD7D1CB81BA0
:100C200000F1010A4FF000472078000703D4AA45DD
:100C300001DB4FF0FF3A0021B7F1004F0DF14308FF
:100C40008DF8431024D002202B23002F01DA7F429D
:100C50002D230A21021EA0F1010000DC5FB197FBE9
:100C6000F1FC97FBF1F201FB1C7C17460CF1300CF8
:100C700008F801CDEEE7A8F101000370218809050D
:100C800001D5452100E06521A0F1010800F8011C13
:100C900009980FA9A1EB0807FF1D00B10120411918
:100CA00001EBEA70A1693844081A401EA06120785F
:100CB000C00602D42046FFF78DFB099828B1D4E97D
:100CC00001219047206A401C20622078C00622D56E
:100CD0002046FFF77FFB1EE0002E04DBB34502DD5C
:100CE00001A8805D00E03020D4E901219047206A0E
:100CF000401C2062761CAAF101005FEA000A0AD1BA
:100D000000F08EF8C0680168405CD4E9012190478A
:100D1000206A401C2062281EA5F10105DCDC07E0EA
:100D2000D4E9012118F8010B9047206A401C206289
:100D3000381EA7F10107F3DC2046FFF761FB032013
:100D400011B041E601694A1C02610878704700B59C
:100D50008FB0CDE901310021059105497944CDE9F4
:100D6000031011466846FFF7EDFB0FB000BD000011
:100D7000E5FFFFFF0A6802F8010B0A60704710B533
:100D8000436913B1AFF3008001E0FFF74AFB012094
:100D900010BD127800F124010A7000224A7001226D
:100DA000EDE711684FF0FF32E9E70000074B70B53F
:100DB0000D467B44FFF7CBFF0446284600F02CF994
:100DC00010B14FF0FF3070BD204670BDEF3800000D
:100DD0004FF0000200B5134694469646203922BFD4
:100DE000A0E80C50A0E80C50B1F12001BFF4F7AF1F
:100DF000090728BFA0E80C5048BF0CC05DF804EB01
:100E0000890028BF40F8042B08BF704748BF20F86E
:100E1000022B11F0804F18BF00F8012B7047000023
:100E2000004870474805002030B5B0F10A024FEA8B
:100E3000900E71F100034EEA817EB0EB0E0061EB83
:100E400091014FEA101E4EEA017E10EB0E0041EBBD
:100E500011114FEA102E4EEA016E10EB0E0041EB1D
:100E600011214FEA104E4EEA014E10EB0E0041EBFD
:100E70001141401841F100014FEAD00040EA4170B1
:100E80004FEAD10110EB80054FEA810444EA9074E7
:100E900044EB01046D1944EB0404521BA3414FF0D1
:100EA000000348BF0A3200D530BD401C41F10001AB
:100EB00030BD00002DE9F0411F46044603260168BD
:100EC000072A01F4006004DB08B116A505E016A5A9
:100ED00003E008B115A500E015A521F01000206081
:100EE000A069C01EA0610FB1401EA0612046FFF79F
:100EF00071FA4FB1D4E9012138469047206A401C6D
:100F00002062C01C206206E0206AFAE7D4E90121D1
:100F100015F8010B9047761EF8D22046FFF770FABD
:100F2000BDE8F0814E414E006E616E00494E4600B4
:100F3000696E66002DE9F047814616468AB035484D
:100F400078440DC88DE80D0032487844801C03AC0D
:100F50000DC884E80D0041F69B300844372190FB12
:100F6000F1F290FBF1F5A5F1800501FB12041B3CA9
:100F700002D56442012000E00020DFF898A08046FE
:100F80000027FA44AAF1BE0A0EE0E0070AD0324672
:100F9000684607EB470101230AEB810100F003FBE0
:100FA0008DE8070064107F1C002CEED1194F7F44A0
:100FB000AE3F19E0E80715D007EB04100DF1180A51
:100FC00090E80E008AE80E00C068F04201D198193E
:100FD00008903246012306A903A800F0E4FA03AB07
:100FE00083E807006D10641C002DE3D14FF001036E
:100FF00032466946B8F1000F03A802D000F0BEFAED
:1010000001E000F0D0FAC9E90001C9F808200AB0EF
:10101000BDE8F08710D40000007B00F0800070472E
:1010200000487047280500207546FFF7F9FFAE46D7
:1010300005006946534620F00700854618B020B5E4
:10104000FFF71EF9BDE820404FF000064FF0000703
:101050004FF000084FF0000B21F00701AC46ACE860
:10106000C009ACE8C009ACE8C009ACE8C0098D46CD
:10107000704710B50446AFF300802046BDE810402D
:10108000FFF7E4B85FEA400C08BF91F0000F4FEAA9
:101090008C234FEAC12243EA51514FEA1C5018BF3A
:1010A00000F5F0404FEA300018BF41F000415FEA20
:1010B0006C5C00F02980BCF1FF3F08BF40F080402D
:1010C0007047130C06BF12044FF0100C4FF0000CC9
:1010D000130E04BF12020CF1080C130F04BF12010F
:1010E0000CF1040C930F04BF92000CF1020CD30F0F
:1010F00004BF52000CF1010C11464FF00002A0F1A8
:101100001F00A0EB0C00704711F0004F08BF7047A4
:1011100031F000413FF4D5AF0B0C06BF09044FF08E
:10112000100C4FF0000C0B0E04BF09020CF1080C60
:101130000B0F04BF09010CF1040C8B0F04BF8900D5
:101140000CF1020CCB0F04BF49000CF1010CCCF1E7
:101150002003A0EB0C0022FA03F302FA0CF241EA9E
:10116000030100F10100704720F07F4C80EA03008A
:1011700023F07F47ACEB070303F57C5300F00040FE
:1011800003F1FF032DE980494FEA154B09B44FEAFB
:10119000144325EA0B4E24EA03480FF2042606EB1B
:1011A000132749083E785FEA320203FB0667C7F55A
:1011B000000707FB06F64FEA54374FEAD64606F11A
:1011C000020607FB066CCCF1005C4FEA1C472CEAD8
:1011D000074C07FB06F40CFB06F504EB15464FEA3B
:1011E000961634BF00204FF000404FEAD13706FB7F
:1011F00007FC4FEA1C4C0CFB0BF7D21B03FB0CF754
:1012000061EB07010CFB0EF7B0EB074072EB1742E6
:101210000CFB08F734BFA2EB0742B2EB074261EBCD
:1012200017414FEA0C444FEA910706FB07FC4FEACF
:101230001C4C0CFB0BF7B0EBC74072EB573203FBB7
:101240000CF734BFA2EBC742B2EBC74261EB573198
:101250000CFB0EF7B0EBC70072EB57720CFB08F7F4
:1012600034BFA2EBC702B2EBC70261EB5771039F19
:101270004FEA816141EA921104EBCC044FEAD13785
:101280004FEA826206FB07FC42EA90124FEA806056
:101290004FEA1C4C0CFB0BF7D21B03FB0CF761EB6A
:1012A00007010CFB0EF7B0EB074072EB17420CFB8B
:1012B00008F734BFA2EB0742B2EB074261EB1741DC
:1012C0004FEA8C554FEA910704EB9C2406FB07FC80
:1012D0004FEA1C4C0CFB0BF7B0EBC74072EB5732DC
:1012E00003FB0CF734BFA2EBC742B2EBC74261EB82
:1012F00057310CFB0EF7B0EBC70072EB57720CFBCB
:1013000008F734BFA2EBC702B2EBC70261EB57711B
:1013100015EB4C254FEA816141EA92114FEA826256
:101320004FEAD13742EA901206FB07FC44F1000471
:101330004FEA80604FEA1C4C0CFB0BF7D21B03FBFF
:101340000CF761EB07010CFB0EF7B0EB074072EBFB
:1013500017420CFB08F734BFA2EB0742B2EB07427F
:1013600061EB174115EB1C154FEA813141EA9241BF
:101370004FEA823242EA90424FEA80304FEA0C76DE
:1013800044F1000448EA03434EEA0B484FF0000ED4
:10139000B2EB080C71EB030724BF624639464EEBF3
:1013A0000E0E4FF0000B0018524149414BEB0B0B56
:1013B000B2EB080C71EB03077BF1000B24BF624614
:1013C00039464EEB0E0E4FF0000B001852414941CA
:1013D0004BEB0B0BB2EB080C71EB03077BF1000B33
:1013E00024BF624639464EEB0E0E51EA020718BF83
:1013F00046F0010616EB0E7655F1000254F100019D
:1014000003D5BDE88901BDE80088BDE88901BDE8D4
:101410000048B619524141EB0101A3F101037047A5
:1014200080807F7E7D7C7B7A797877767675747321
:10143000727171706F6E6E6D6C6C6B6A6A696868E0
:10144000676666656464636362616160605F5F5E76
:101450005E5D5D5C5C5B5B5A5A59595858575756EC
:101460005655555554545353525252515150505051
:101470004F4F4F4E4E4D4D4D4C4C4C4B4B4B4A4AA3
:101480004A494949484848474747474646464545E7
:101490004544444444434343434242424241414120
:1014A000002B9C4630D477002BD01CB54FEA370771
:1014B00003B44FF010004FF01001BAF1000F06D046
:1014C000BCF1000FDCBF40F0080040F008014FF015
:1014D00000000FBCBDE810400BF1010BBBF1010F88
:1014E00008BF5FEA170722BF12F1010211F10101E3
:1014F0004FF0004143F1000300F0004043EA0000D8
:101500007047F9D35708D0E746EA064613F1400F73
:101510004FEA16461FDD13F1200FDFBF16430A46C0
:10152000002120335B42BED0C3F1200746EA0646C5
:1015300002FA07F74FEA164646EA0706C3F1200704
:1015400022FA03F201FA07F721FA03F14FF0000340
:1015500042EA0702A7E746EA020646EA06464FEADB
:10156000164646EA0106BCBF46EA0646360C4FF070
:1015700000034FF000024FF0000194E72DE9804C8A
:101580009A46934670B491E8380007C831EA400C97
:1015900048BF34EA430C03D5FFF7E6FDFFF780FFB1
:1015A000F0BCBDE8008C2DE9804C9A46934670B49F
:1015B00091E8380007C810F0804F08BF13F0804F43
:1015C00003D100F005F8FFF76BFFF0BCBDE8008C1D
:1015D00020F07F4780EA030023F07F4C07EB0C03E9
:1015E000A3F57C5300F00040A3F1FE0392F0000F3E
:1015F00000F0B38095F0000F00F077802DE90149ED
:101600004FEA11404FEA144621EA004800FB06FC6D
:1016100024EA064708FB06F607FB08F800FB07F775
:1016200018EB06484CEB164C4FEA124B18EB0748E8
:101630004FEA15464CEB174022EA0B4E0BFB06FC1B
:1016400025EA06470EFB06F607FB0EFE0BFB07F727
:101650001EEB064E4CEB164C4FF000061EEB074EF1
:101660004CEB174B18EB0B0840F1000018EB0E0B7E
:1016700058EB000840F100008F1A4FF000013CBF0A
:10168000C943661B14BFB5EB040C00213CBFC94322
:10169000F61B4FEA17444EEA8E0E27EA04454FEA3E
:1016A0001C4704FB07622CEA074C05FB07F70CFB01
:1016B00005F604FB0CFC16EB074642EB174216EB53
:1016C0000C4642EB1C421BEB060658EB0202414162
:1016D00046EA9E0601D5BDE80189B619524141EBA3
:1016E0000101A3F10103BDE801894FEA14454FEA66
:1016F000114724EA054621EA074C05FB07F406FBDF
:1017000007F70CFB06F105FB0CFC11EB074144EB62
:1017100017444FEA124711EB0C4144EB1C4422EAF8
:10172000074C05FB07F206FB07F70CFB06F605FB6B
:101730000CFC16EB074642EB174216EB0C4642EB4D
:101740001C456A1854F1000148BF7047B619524150
:1017500041EB0101A3F10103704795F0000F37D071
:101760004FEA11424FEA144721EA024624EA074CA5
:1017700002FB07F106FB07F70CFB06F402FB0CFC6F
:1017800014EB074441EB17414FEA154714EB0C44A7
:1017900041EB1C4125EA074C02FB07F506FB07F766
:1017A0000CFB06F602FB0CFC16EB074645EB174557
:1017B00016EB0C4645EB1C42121951F1000148BFD3
:1017C0007047B619524141EB0101A3F10103704783
:1017D0004FEA14454FEA114724EA054621EA074C2F
:1017E00005FB07F106FB07F70CFB06F24FF00006BE
:1017F00005FB0CFC12EB074241EB174112EB0C42CC
:1018000051EB1C4148BF7047921841EB0101A3F115
:1018100001037047FEE70000064810B50E2100687E
:10182000FEF797FF07F010F9BDE81040072007F01A
:101830003DB900003000002070B504464FF400456B
:10184000284607F04DF94FF4084007F049F9208089
:101850004FF4104007F044F960804FF4184007F04F
:101860003FF9A080284607F03BF9E08070BD10B535
:101870000446008807F034F9608807F031F9A08841
:1018800007F02EF9E088BDE8104007F029B970474D
:1018900070B5B3F5804F05D06FF0704140F822105D
:1018A000002070BD50F82240084B8E891C40D1E9C1
:1018B000003543EA05138D6889692D0245EA06451E
:1018C0002B430B43234340F82230E9E70000F0CFDD
:1018D000F0B50C6850F82430114A1340D1E90125C5
:1018E000D1E903672A433E4332434E6932438E694E
:1018F0003243CE6932430E6A32434E6A32438E6AB5
:101900003243CE6A3243CE6B096B32430A431A43E9
:10191000082D01D142F0400240F824200020F0BD03
:101920008000F0FF30B500EB820250688D8900F036
:101930004043D1E9000440EA04108C68240244EAE0
:10194000054420430C8A074D05EB045420430C7DCD
:101950006D0105EB04648969204308431843506016
:10196000002030BD0000F0FF2DE9F0410446876DF6
:1019700000F062F9064694F835000025022806D0EA
:101980008020606584F834500120BDE8F081206833
:10199000016821F0160101602068416921F0800191
:1019A0004161206C08B9A06C20B12068016821F069
:1019B000080101602068016821F0010101600BE06D
:1019C00000F03AF9801B052806D92020606504F84C
:1019D000345F03206070D8E720680068C007EFD14B
:1019E00094F85C103F208840B86004F8345F012010
:1019F00060700020C9E790F83510022903D08021DB
:101A0000416501207047052180F8351000680168A4
:101A100021F0010101600020704700002DE9F84F1E
:101A2000DFF8B8A1002201250AF1040B03264FF0CC
:101A30000F090BF1040E00BF0B6805FA02F42340F6
:101A4000A3426FD10F7907F00307012F01D0022FB6
:101A500016D187684FEA420806FA08FC27EA0C0705
:101A6000D1F80CC00CFA08FC4CEA070CC0F808C00E
:101A70004768A7430C79C4F3001494403C43446086
:101A80000C79E443A4070AD0C4684FEA420C06FA72
:101A90000CF7BC438F6807FA0CF72743C7600C7933
:101AA00004F00304022C12D1D40800EB840CDCF8FF
:101AB00020405707FF0E09FA07F824EA0804D1F876
:101AC000108008FA07F848EA0408CCF82080046877
:101AD0004FEA420C06FA0CF7BC430F7907F00307F4
:101AE00007FA0CF7274307604C68E40070D53C4CBC
:101AF000276847F480472760246822F0030704F42E
:101B000080440094374C07EB040CDCF80848970736
:101B10004FEA177809FA08F7BC43334FB84202D1AD
:101B2000002724E054E0314FB84201D101271EE0E4
:101B30002F4FB84201D1022719E02E4FB84201D1F0
:101B4000032714E02C4FB84201D104270FE02B4F9C
:101B5000B84201D105270AE0294FB84201D1062732
:101B600005E0284FB84201D1072700E0082707FA0F
:101B700008F72743CCF80878DAF800405746D1F840
:101B800004C09C435FEACC3C00D51C433C60DBF8BE
:101B900000405F46D1F804C09C435FEA8C3C00D50E
:101BA0001C433C60DEF800407746D1F804C09C43FB
:101BB0005FEACC2C00D51C433C60084F0C373C68D6
:101BC000D1F804C09C435FEA8C2C00D51C433C60D8
:101BD000521C102AFFF430AFBDE8F88F003C0140E2
:101BE000443802400030014000000240000402403E
:101BF00000080240000C02400010024000140240A5
:101C000000180240001C02400069084000D001207A
:101C10007047426921EA02030A4043EA02418161B6
:101C200070470AB1816170470904FBE70148006809
:101C3000000C7047002004E00148806870470000F5
:101C40001C000020024881680278114481607047BE
:101C50001C000020094810B5016841F400710160C2
:101C6000016841F480610160032000F057F80F2003
:101C700000F006F800F024F8002010BD003C0240FF
:101C800070B50D4D04464FF47A712878B1FBF0F031
:101C90000A490968B1FBF0F000F048FD48B9102C82
:101CA00007D200222146501E00F018F800206C6078
:101CB00070BD012070BD00001C0000200C00002041
:101CC0007047002809DB00F01F0201219140400904
:101CD000800000F1E020C0F800117047F0B40E4B16
:101CE0001B680C46C3F30223C3F10705042D00D97A
:101CF0000425191D072901D2002300E0DB1E01265F
:101D000006FA05F1491E214099409E40761E164074
:101D10003143F0BC01F05BBC0CED00E0064900F083
:101D2000070208684FF6FF03184040EA0220034A02
:101D300010430860704700000CED00E00000FA0559
:101D40002DE9F0470E46050065D0DFF81481D8F87C
:101D50000000F7B200F00700B04207D288F8007028
:101D6000D8F8000000F00700B04254D128683D4C7C
:101D7000810712D5400703D5206840F4E050206069
:101D80002878000703D5206840F460402060206870
:101D9000A96820F0F000084320602878C0072DD003
:101DA000304968680839012812D0022813D0032866
:101DB00011D00968890700292DDA216821F0030173
:101DC00001432160FFF738FF814641F2883A0EE077
:101DD00009688903EFE709688901ECE7FFF72CFF41
:101DE000A0EB0901514502D90320BDE8F087206826
:101DF000696800F00C00B0EB810FEFD1D8F800104B
:101E0000404601F00701B14207D90770006800F0B1
:101E10000700B04201D00120E7E72878400705D548
:101E20002068E96820F4E050084320602878000723
:101E300006D52068296920F4604040EAC10020608E
:101E400000F038F82168084AC1F30311515CC8401A
:101E50000649086006480068FFF712FF0020C4E743
:101E6000003C024008380240E0B100080C000020AD
:101E7000200000200448054900680968044AC1F3AD
:101E80008221515CC84070470C0000200838024095
:101E9000F0B100080448054900680968044AC1F324
:101EA0004231515CC84070470C00002008380240A5
:101EB000F0B10008154810B5006810F00C02144885
:101EC00013D01449042A0FD0082A0ED10F4C241F16
:101ED0002268236802F03F025B0207D52068C0F346
:101EE0008810A0FB010106E0084610BD2168C1F37F
:101EF0008811A1FB00010023FEF7D5F92168C1F389
:101F00000141491C4900B0FBF1F010BD0838024006
:101F10000024F40040787D012DE9F84F04006ED0D4
:101F20002078DFF84C93C007A9F104054AD009F1E5
:101F300004000168C1F38101012908D00068C0F3E1
:101F4000810002280AD1D9F80000400206D528688D
:101F5000800337D560680028E1D033E06068B0F5D1
:101F6000803F10D0B0F5A02F286810D020F480302A
:101F70002860286820F4802028606068A8B1FFF7F6
:101F80005BFE06460DE0286840F48030F4E740F43C
:101F900080202860F7E700BFFFF74EFE801B642813
:101FA00073D828688003F7D50CE0FFF745FE064696
:101FB00005E000BFFFF740FE801B6428F0D82868CA
:101FC0008003F7D42078DFF8AC8280074FF0000A56
:101FD0003ED5A748001D016811F00C0F08D000681D
:101FE000C0F3810002280BD1D9F80000400207D4C9
:101FF0002868800716D5E068012800D112E033E197
:10200000E068B8B10120C8F80000FFF715FE0646E9
:1020100005E000BFFFF710FE801B0228C0D828682B
:102020008007F7D52868216920F0F80040EAC10050
:1020300028600DE0C8F800A0FFF7FEFD064604E0AA
:10204000FFF7FAFD801B02281FD828688007F7D405
:102050002078000722D5864F87486169703771B1B3
:1020600001210160FFF7E8FD064604E0FFF7E4FD0B
:10207000801B022809D838688007F7D50EE0C0F821
:1020800000A0FFF7D9FD064605E082E0FFF7D4FD8A
:10209000801B02287DD838688007F7D42078400755
:1020A00068D5DFF8CCB100270BF13C0BDBF8000062
:1020B000C0000BD4DBF8001041F08051CBF80010C9
:1020C000DBF80000012700F0805000906B4E306874
:1020D000C00510D4306840F480703060FFF7ACFD6C
:1020E000009005E0FFF7A8FD0099401A022850D89B
:1020F0003068C005F6D55E4EA0686C3601280FD05A
:102100000528306810D020F001003060306820F0E1
:1021100004003060A068B8B1FFF78EFD00900FE0BA
:10212000306840F00100F4E740F004003060F7E769
:10213000FFF782FD0099411A41F28830814266D84A
:1021400030688007F4D50EE0FFF776FD009007E0D9
:10215000FFF772FD0099411A41F28830814256D84A
:1021600030688007F4D42FB1DBF8001021F08051E3
:10217000CBF80010A069C8B33D49091D0968C1F337
:10218000810102294AD00228504607D0C8F86000D1
:1021900000E03CE0FFF750FD04463BE04746C8F84E
:1021A0006000FFF749FD064605E000BFFFF744FD6C
:1021B000801B02282BD828688001F7D4D4E90701B6
:1021C0000843A16A2E4A490802EB0141626A41EACA
:1021D0008211084394F82C1040EA0161C9F80010FC
:1021E00001203866FFF728FD044606E03EE000BF08
:1021F000FFF722FD001B022809D828688001F7D5C7
:1022000034E000BFFFF718FD001B022802D90320AD
:10221000BDE8F88F28688001F4D427E00128F7D0C2
:10222000D9F80000E26900F4800191421CD1226AD1
:1022300000F03F01914217D147F6C071626A014038
:10224000B1EB821F10D1A26A4FF0FF3300F440318E
:1022500003EB5202B1EB024F06D194F82C1000F0C0
:102260007060B0EB016F01D00120D1E70020CFE713
:102270000438024000004742800E47420070004090
:102280000000FFFF70B5040008D0606A002538B177
:102290002561656194F8510040B10CE0012070BDEA
:1022A0006068B0F5827FF5D0E561F3E784F85050BF
:1022B000204600F04DF8022084F8510020680168A3
:1022C00021F040010160A088218900F4827001F4AE
:1022D00004410843A18901F400610843217C01F015
:1022E00002010843217D01F001010843218B01F423
:1022F00000710843217F01F03801084394F8201051
:1023000001F080010843218D01F400510843216848
:102310000860A069042101EA104094F8241001F03B
:102320001001084321684860A06AB0F5005F03D13E
:10233000A08D216880B208612068C16921F4006124
:10234000C1616565012084F85100002070BD000066
:1023500070B50068234986B0884241D1224801689F
:1023600041F480710160016801F480710591016898
:1023700041F480710160016801F480710591016888
:1023800041F480710160016801F480710591016878
:1023900041F4807101600068012400F480700094B1
:1023A000124E02250590694601943046CDE902455A
:1023B000FFF734FB0095CDE901540520CDE903502A
:1023C00069463046FFF72AFB0420009069463046F4
:1023D000FFF724FB0820009069463046FFF71EFBFC
:1023E00006B070BD00380040303802400020024086
:1023F0002DE9FF4F81B04FF0000A0446CDF800A050
:1024000090F850000E9F1D4693464FF00109564626
:1024100001280ED0012084F85000FFF70DFC804603
:1024200094F85100616801280DD0B1F5827F08D180
:1024300003E0022005B0BDE8F08FA16809B90428C7
:1024400001D0022606E10298C0B3BBF1000F36D0DE
:10245000A5B394F85100042802D0052084F8510057
:10246000C4F854A0C4F838B0E587A5870299216361
:10247000E586A586C4F840A0C4F844A0A06A4FF43D
:10248000005B584509D12068016821F400510160C2
:102490002068016841F40051016020680168490624
:1024A00003D4016841F040010160E068B0F5006FBD
:1024B000606806D0F0B3012D51D094E0FFE701260B
:1024C000C8E008B1012D43D1206B21680088C860A5
:1024D000206B801C2063E08E401EE08638E0206880
:1024E0008168890719D5E18EB9B1B9F1010F14D10D
:1024F000216B0988C160206B801C2063E08E401E28
:10250000E086E08E4FF0000938B9A06A584504D142
:102510002068016841F48051016020688168C90722
:102520000ED0E18F61B1C068A16B0880A06B801CE8
:10253000A06300E013E0E08F401EE0874FF0010948
:10254000FFF77AFBA0EB0800B84201D3781C60D1FA
:10255000E08E0028C3D1E08F0028C0D149E0206B75
:10256000216800780873206B401C2063E08E401EB9
:10257000E08638E020688168890719D5E18EB9B115
:10258000B9F1010F14D1216B09780173206B401C44
:102590002063E08E401EE086E08E4FF0000938B9DF
:1025A000A06A584504D12068016841F48051016057
:1025B00020688168C9070CD0E18F51B1C068A16B58
:1025C0000870A06B401CA063E08F401EE0874FF0B6
:1025D0000109FFF731FBA0EB0800B84202D3781CD9
:1025E00001D016E0AFB1E08E0028C3D1E08F002803
:1025F000C0D1A06A584511D101223B461146204660
:10260000CDF8008000F0F4FC28B1606D40F00200CD
:10261000606503261EE02068C0680090206881681D
:10262000C90607D5616D41F0020161654FF6EF7192
:102630008160012642463946204600F0ADFC18B1C3
:1026400001262020606505E0A06818B92068C168EF
:1026500080680090012084F8510084F850A0304632
:10266000E8E670B515460E46040003D094F849001C
:1026700010B107E0012070BD002084F8480020461A
:1026800000F01AF804F108012068FFF721F931463B
:10269000A2682068FFF746F9D4E901022946236BB6
:1026A000FFF7F6F8A168206850F8212042F00102F7
:1026B00040F82120002070BD194800B5016887B09E
:1026C00041F001010160006800F00100059014482C
:1026D0000838016841F008010160016801F0080153
:1026E0000591016841F0100101600068012100F0CE
:1026F000100005904CF2037000900220CDE901011A
:1027000003900C20049069460648FFF787F94FF6BE
:102710008070009069460448FFF780F907B000BD5B
:1027200038380240000C02400010024010B5401E34
:10273000B0F1807F01D3012010BD4FF0E024606133
:102740000F21601700F043FF0020A06107202061E7
:10275000002010BD7047704710B5040003D094F8F6
:102760003D0010B107E0012010BD002084F83C00BE
:10277000204600F01FF8022084F83D00211D20684B
:1027800000F0AAFC012084F8460084F83E0084F89A
:102790003F0084F8400084F8410084F8420084F847
:1027A000430084F8440084F8450084F83D0000208C
:1027B00010BD000008B500680B49884212D10B48D3
:1027C000016841F0100101600068032200F0100070
:1027D000009001213620FFF781FABDE8084036203D
:1027E000FFF76FBA08BD00000010004040380240FB
:1027F00090F83D10012901D001207047022180F896
:102800003D100168CA6842F00102CA6000681149BF
:10281000884214D0B0F1804F11D00F4988420ED0B9
:102820000E4988420BD00E49884208D00D49884293
:1028300005D00D49884202D00C49884204D18168F4
:1028400001F00701062903D0016841F00101016090
:1028500000207047000001400004004000080040D4
:10286000000C0040000401400040014000180040FE
:10287000704770B50446006801694FF00005C94310
:10288000890715D4C168C943890711D4E91E0161BC
:1028900001202077206880698007204602D0FFF75A
:1028A000E7FF04E000F098F8204600F027F92577CC
:1028B00020680169C943490717D4C168C94349075A
:1028C00013D46FF004010161022020772068806931
:1028D00010F4407F204602D0FFF7CAFF04E000F06A
:1028E0007BF8204600F00AF9257720680169C94382
:1028F000090716D4C168C943090712D46FF008014B
:102900000161042020772068C0698007204602D03A
:10291000FFF7AEFF04E000F05FF8204600F0EEF8AD
:10292000257720680169C943C90617D4C168C9431E
:10293000C90613D46FF010010161082020772068C8
:10294000C06910F4407F204602D0FFF791FF04E0F9
:1029500000F042F8204600F0D1F8257720680169A0
:10296000C943C90708D1C168C943C90704D1891E31
:102970000161204600F0C4F820680169C9430906D6
:1029800009D4C168C943090605D46FF0800101610B
:102990002046FFF7DFFE20680169C943490609D4D4
:1029A000C168C943490605D46FF040010161204662
:1029B00000F022F920680169C94389060BD4C16877
:1029C000C943890607D46FF0200101612046BDE8A4
:1029D0007040FFF7C0BE70BD704770B5044690F8F8
:1029E0003C000D4601280AD0012084F83C0042B189
:1029F000042A18D0082A2AD00C2A4DD139E0022006
:102A000070BD206800F0CCFB2068816941F00801AE
:102A100081612068816921F00401816120688169F8
:102A20002A69114311E0206800F0EAFB20688169FF
:102A300041F4006181612068816921F480618161D4
:102A4000206881692A6941EA0221816124E02068C5
:102A500000F00CFC2068C16941F00801C1612068E8
:102A6000C16921F00401C1612068C1692A6911436B
:102A700011E0206800F02EFC2068C16941F400617B
:102A8000C1612068C16921F48061C1612068C169A8
:102A90002A6941EA0221C161002084F83C0070BD2E
:102AA00010B5040003D094F83D0010B107E00120F8
:102AB00010BD002084F83C00204600F01EF80220E3
:102AC00084F83D00211D206800F006FB012084F8F9
:102AD000460084F83E0084F83F0084F8400084F803
:102AE000410084F8420084F8430084F8440084F8EC
:102AF000450084F83D00002010BD7047704700007D
:102B000070B500683549884206D1354C2178354882
:102B10000025012901D0057070BD017811B901218E
:102B200001706571A07900284FF0010013D002F008
:102B30006BF9C0F10700A070A07806280ED8A07825
:102B400060B1A0786071A078274901EB800050F84F
:102B5000040C804705E002F057F9ECE707F030F885
:102B60002570606A401C6062E07807F083FD207188
:102B7000207900BBA1791D480029616AB0FBF1F002
:102B800000D04042E16800B200EE101ADFED180AF2
:102B90009FED181AB8EEC00A60EE200A00EE100A87
:102BA000B8EEC00A40EE010ABDEEE00A10EE100ACF
:102BB000E060256265622079012801D125626562A5
:102BC00020790228A8D1206A401C2062206A43F69E
:102BD00098218842A0D92562E56070BD00040140BB
:102BE000B8000020AC000020E0000020B01E04006F
:102BF000FC18433F0F9C733E70477047704710F8B6
:102C00003D1F407808437047F8B5026804461068D5
:102C1000D168536910F00F0F4FF0000553D003F047
:102C2000010601F4907737435FD0C20705D0CA058B
:102C300003D5226C42F001022264420705D5DA076F
:102C400003D0226C42F002022264820705D5DA0723
:102C500003D0226C42F004022264020707D501F07F
:102C60002002324303D0226C42F008022264226C1C
:102C7000002A34D0800604D5880602D5204600F00C
:102C800071FB20684069216CC0F38010090700D4F3
:102C900030B3204600F04EFB2068416949061BD541
:102CA000416921F040014161A06BA8B1594901651A
:102CB000A06BFEF7A0FE002811D0A06B016D01B043
:102CC000BDE8F040084783060FD58B060DD520469A
:102CD000BDE8F84000F046BB2046FFF78FFFF8BD87
:102CE0002046FFF78BFF2564F8BD266B2023012EBD
:102CF00053D1C60651D5CE064FD510685068009006
:102D0000506940062BD5A16B086840680004000C90
:102D1000EAD0A68D8642E7D9E085C869B0F5807F04
:102D200018D0D06820F48070D0602068416921F00C
:102D3000010141612068416921F04001416184F84D
:102D40003E3025632068C16821F01001C160A06B8E
:102D5000FEF70AFEA08DE18D401A81B219E0A08D28
:102D6000E18D401A81B2E08D0028BDD00029BBD092
:102D7000D06820F49070D0602068426922F001028F
:102D8000426184F83E3025632068C26822F0100258
:102D9000C2602046FFF731FFF8BD05062BD50D06B2
:102DA00029D594F83D002128F6D1A068B0F5805FC0
:102DB00001D12069B0B1206A411C216221680078EC
:102DC0004860E08C401E0004000CE084E4D12068E0
:102DD000C16821F08001C1602068C16841F04001F4
:102DE000C160F8BD206A0088C0F308005060206A06
:102DF000801C2062E5E74006F3D54806F1D5D1688E
:102E0000204621F04001D16084F83D3000F0BEF84A
:102E1000F8BD00002533000870B5040004D094F814
:102E20003D00002510B106E0012070BD84F83C5043
:102E3000204600F023F8242084F83D002068C16873
:102E400021F40051C160204600F0E4FA20680169D5
:102E500021F4904101612068416921F02A0141611A
:102E60002068C16841F40051C1602564202084F8C5
:102E70003D0084F83E00002070BD000030B50068C1
:102E80001E4987B0884237D11D48016841F01001C2
:102E90000160006800F010000590194814380168BE
:102EA00041F002010160016801F002010591016831
:102EB00041F0020101600068012100F0020005906C
:102EC000402000900220CDE901010724CDE9030450
:102ED0000C4D69462846FEF7A1FD8020009069460A
:102EE00004942846FEF79AFD2520FEF7EAFE032209
:102EF00011462520FEF7F2FE07B030BD001001405C
:102F0000443802400004024090F83E30202B0ED19D
:102F100059B152B190F83C30012B08D0012380F810
:102F20003C300023036300F0FBBA0120704702200D
:102F30007047000030B50068114988420CD1114833
:102F400041880A0408D402464C0412784FF000036A
:102F500006D50A2A01D0438030BD41F400410DE07E
:102F60000D2A09D0C1F30D04074D491C89B22A5519
:102F70004180C729EFD830BD41F48041418030BD48
:102F80000010014014000020F80000207047FEE708
:102F9000FEE770477047000038B504461248134BEF
:102FA0000068B0FBF3F04FF47A7358430090606808
:102FB000B0F5827F0DD10B46009200228021204681
:102FC00000F016F870B1606D40F0200060650320DD
:102FD00038BD009830B1401E009020688068C04322
:102FE0000006F6D5002038BD0C00002000366E012A
:102FF0002DE9F8431E46914688460446089DFEF793
:103000001BFE401B351AFEF717FE074625480068D1
:10301000C0F3CB30684338E0701C37D0FEF70CFEAD
:10302000C01BA84203D215B1009860B32CE0206801
:10303000416821F0E00141606068B0F5827F0BD10A
:10304000A068B0F5004F02D0B0F5806F04D12068C1
:10305000016821F040010160A06AB0F5005F09D16C
:103060002068016821F4005101602068016841F482
:1030700000510160012084F85100002084F85000C4
:103080000320BDE8F8830025401E00902068816879
:1030900038EA010004D000214945BDD10020F0E705
:1030A0000121F9E70C0000207047FEF7CBBD0000BE
:1030B0000248016841F470010160704788ED00E04A
:1030C0000148FFF7D6BB00007C0400200148FFF751
:1030D000D0BB0000C4040020F0B50268254C264D8A
:1030E000264E274F274B4FF0804CA04209D0604519
:1030F00007D0A84205D0B04203D0B84201D09842D0
:1031000004D122F0700E4A6842EA0E02A0421BD09F
:10311000604519D0A84217D0B04215D0B84213D09C
:10312000984211D0184DA8420ED0184DA8420BD08D
:10313000174DA84208D0174DA84205D0164DA842F9
:1031400002D0164DA84203D122F44075CA682A4322
:103150004D6922F080022A4302608A68C2620A68CE
:103160008262A04201D0984201D109690163012124
:103170004161F0BD00000140000400400008004033
:10318000000C0040000401400040014000440140A8
:103190000048014000180040001C00400020004092
:1031A000F0B5026A22F001020262036A4268846991
:1031B000124E24F073050C682C4323F002058B6833
:1031C0002B430D4DA84201D0B04205D123F0080792
:1031D000CB683B4323F00403A84201D0B04205D1A1
:1031E0004D6922F4407215438A692A434260846122
:1031F000496841630362F0BD0000014000040140E2
:10320000F0B5026A22F010020262026A4368846921
:103210000D6824F4E64444EA05248D6822F0200277
:1032200042EA05120F4D104EA84201D0B04206D11D
:10323000CF6822F0800242EA071222F04002A84240
:1032400001D0B04207D14D6923F4406343EA8503BE
:103250008D6943EA85034360846149688163026242
:10326000F0BD00000000014000040140F0B5026A1A
:1032700022F480720262026A4368C46922F4007216
:1032800024F073050C68124E2C438D6842EA052227
:103290000E4DA84201D0B04206D1CF6822F40062A0
:1032A00042EA072222F48062A84201D0B04207D14C
:1032B0004D6923F4405343EA05138D6943EA05132E
:1032C0004360C4614968C1630262F0BD000001400F
:1032D0000004014030B5026A22F480520262046A9E
:1032E0004268C3690D6823F4E64343EA05238D6809
:1032F00024F4005444EA0534084DA84202D0084D95
:10330000A84204D14D6922F4804242EA851242600B
:10331000C36149680164046230BD000000000140DF
:103320000004014010B5806B0021C185C184FFF706
:1033300065FC10BD0168CA6822F49072CA60016819
:103340004A6922F001024A61016B012904D1016836
:10335000CA6822F01002CA60202180F83E100021C5
:103360000163704710B5044690F83E00222801D052
:10337000022010BDA1684FF48052914201D1206912
:1033800020B1A06A91421BD049B10AE02168A06A2D
:103390004968C1F308010180A06A801C08E0216926
:1033A00071B12168496801F07F010170A06A401C79
:1033B000A062E08D401E0004000CE08503D01CE0FC
:1033C00021684968F1E72068C16821F02001C160E7
:1033D0002068C16821F48071C1602068416921F0D2
:1033E00001014161202084F83E00206B012806D0B5
:1033F0002046FFF79FFD00202063002010BD2068BD
:10340000C16821F01001C160A18D2046FFF7F5FBD6
:10341000F1E7000070B5044600680169E26821F434
:103420004051114301612169A068E2690843616963
:10343000114308432168CA6849F20C639A43024366
:10344000CA6020684169A26921F440711143416159
:1034500031492068884202D03049884202D1FEF7C3
:1034600019FD01E0FEF706FDE2690023192164253C
:103470003226B2F5004F626828D0A0FB0101930FFD
:103480009200FCF710FF0146B0FBF5F06FF0180258
:10349000504301EB800006EB0010B0FBF5F000F0AC
:1034A000F002B1FBF5F002EB0012B1FBF5F06FF0AA
:1034B0001803584301EB800006EB0010B0FBF5F059
:1034C00000F00F0021681044886070BDA0FB01016E
:1034D00092185B41FCF7E7FE0146B0FBF5F00201F4
:1034E000B1FBF5F06FF01803584301EB800006EBD9
:1034F000C000B0FBF5F000F0F80002EB4002B1FBB9
:10350000F5F0584301EB800006EBC000B0FBF5F08E
:1035100000F00700D6E70000001001400014014051
:1035200081628285C28500210164222280F83E20CA
:1035300080F83C100168CA6842F48072CA60016871
:103540004A6942F001024A610068C16841F0200105
:10355000C16000207047000070B500240C4D0D487C
:10356000FFF752FB02E0641CAC4204D80948FFF7A5
:1035700046FB2028F7D1002402E0641CAC4206D8A8
:10358000012205490348FFF7BFFC0028F5D170BDB3
:10359000FFFF0100C001002014000020FEE703B47B
:1035A00001984100009850EAC12018BF04204A0D3C
:1035B00018BF40F0010040F2FF72B2EB515F08BF4C
:1035C00040F00200012808BF052002B0704709073B
:1035D000090E002804DB00F1E02080F80014704799
:1035E00000F00F0000F1E02080F8141D7047303823
:1035F0000A2801D201207047002070477047017AE5
:10360000092922D2DFE801F021050A0F1C22272C0C
:103610003100427B818862F3010115E0427B8188A1
:1036200062F3C30110E0417B828861F3051282805E
:10363000C28801F0040122F0400242EA011118E0C0
:10364000427B818862F38A1181807047427BC18806
:1036500062F301010DE0427BC18862F3830108E05F
:10366000427BC18862F3041103E0427BC18862F3AC
:103670004511C180704701F01DBC70B514460D4660
:10368000064606E03046711C8EB200F006F805F8DA
:10369000010B641EA4B2F5D270BD10B5044601F052
:1036A000B1FC200AA02101EB4000C0B201F07EFC79
:1036B00001F0EAFCE0B201F079FC01F0E5FC01F078
:1036C000A1FCA12001F072FC01F0DEFC002001F061
:1036D0003FFC044601F0BAFC204610BD70B516460A
:1036E0000C46054606E02178284600F007F86D1CD8
:1036F000ADB2641C761EB6B2F5D270BD70B50D4683
:10370000044601F07FFC200AA02101EB4000C0B27A
:1037100001F04CFC01F0B8FCE0B201F047FC01F014
:10372000B3FC284601F042FC01F0AEFC01F08EFC37
:10373000BDE870400A2000F09DBB0000094800224F
:10374000B0F904100848002902DD418282717047F7
:1037500006DAC1F1000141824FF001018171704729
:103760004282704700000020B8000020012806D1E6
:1037700003488171BCEEC00A10EE101A41827047F6
:10378000B800002070B50C46054601F001FB21464B
:103790002846BDE8704000F0B7B90000334810B5C6
:1037A000026886B0002142F002020260006800F068
:1037B000020005902D481438026842F480720260BD
:1037C000026802F480720592026842F4807202601C
:1037D000026802F480720592026842F4807202600C
:1037E000026802F480720592026842F08002026070
:1037F00000681F4C00F0800005900220CDE9010117
:103800000390032004902020009069462046FEF794
:1038100005F94020009069462046FEF7FFF8802019
:10382000009069462046FEF7F9F84FF40050114C1D
:10383000009069462046FEF7F1F84FF48040009072
:1038400069462046FEF7EAF84FF4004000906946CA
:103850002046FEF7E3F8022211462C20FEF73EFA3E
:103860002C20FEF72EFA06B010BD000044380240AE
:1038700000200240001C02402DE9F047DFF86C8177
:1038800092B03021B8F80040002007F079F8584D88
:103890002878012874D057A258A103A8FCF786FD08
:1038A000287801286ED04FF47840182703AE00978F
:1038B000CDE901604FF4827A3B4652460C21C82084
:1038C00004F00EFE3021084607F05AF8A8790028C7
:1038D0005BD04BA249A103A8FCF768FD1F2100970C
:1038E000CDE90161B946182352463C21C82004F0B5
:1038F000F7FD3021602007F043F8012001F084FA41
:10390000AB7802463FA103A8FCF750FD1021CDE99A
:1039100000160020029018234FF48C726821C820F2
:1039200004F0DEFD4FF6FF700090A01E82B2C623A9
:103930009121012004F038FAE86800EE100AB8EE90
:10394000C00A10EE100A07F0D3FB41EC100B31A1B6
:1039500053EC102B03A8FCF729FD03AD4FF0A00A90
:1039600018271F262946484606F092FEB8F8001090
:1039700081420CD9081AC0F34F0009E000E001E0D1
:1039800028A289E74FF4FC608FE727A2A2E7002076
:103990000097091ACDE901568AB21C23514604F05A
:1039A0009FFD22A00C25CDE9005040F2CF16102338
:1039B000C822B42102960A2004F092FD1CA0CDE991
:1039C00000501E3C0296A0B210232822B42104F01D
:1039D00087FD06F061FFB8F800304FF4C772C921C7
:1039E000144800F05FFB12B0BDE8F08754020020DD
:1039F000B800002053544F50000000002573000011
:103A0000434357007261773A256C75207374657073
:103A10003A25750073706565643A20252E3166205D
:103A200052504D0052554E00435700003C2D0000AF
:103A30002D3E0000BC02002010B5184C2068416CDF
:103A400041F4004141642068016841F001010160D6
:103A50001348807900284FF001001BD001F0D4F901
:103A6000C0F10700C0B2411E052905D80D4901EB80
:103A7000800050F8040C80472068416C21F480518C
:103A800041642068416C41F4004141642168012097
:103A9000486110BD01F0B8F9E4E70000C40400205B
:103AA000B8000020E0000020144A1178012924D138
:103AB00013490028B1F9043009DD03F5FA7318B28F
:103AC00041F2BF23888098420ADB8B800CE0A3F58B
:103AD000FA7318B20B4B8880984201DC8B8007E0A8
:103AE000B1F90400002803DD88885082002003E03B
:103AF000888840425082012090717047B8000020B1
:103B00000000002041EDFFFF38B5244A002413686F
:103B100043F0020313601268224D02F00202009289
:103B2000C5E902402C61AC611D4A6C61C5E9002108
:103B30002846FEF7B5FFFFF731FE05F1480060218A
:103B4000C0E900148460C46004614461014684617A
:103B500000224838FEF741FF042205F148012846BB
:103B6000FEF73BFF082205F148012846FEF735FF26
:103B70002868816940F60802914381612868C1691B
:103B800021F00801C1612868416C21F0FF0141F07A
:103B900020014164BDE8384006F012B844380240C4
:103BA00000040140C4040020094A10B5074BC2E9D3
:103BB00000310021C2E9021010461161FEF7CCFD70
:103BC000BDE810400248FEF713BE000000100040A0
:103BD0007C04002070B5124D4FF480740022214601
:103BE0002846FEF71EF8022000F04AF90122402183
:103BF0002846FEF716F8022000F042F90022402184
:103C00002846FEF70EF8022000F03AF9012221467C
:103C10002846FEF706F8BDE87040022000F030B9F3
:103C2000001C0240144810B5016886B041F08001C4
:103C30000160016801F080010591016841F0800197
:103C4000016000680D4C00F080000590402000905D
:103C50001120019001200290032003906946204624
:103C6000FDF7DCFEA015009069462046FDF7D6FE64
:103C700000F0A8F806B010BD30380240001C024029
:103C800010B50D4C012211022046FDF7CAFF02209B
:103C900000F0F6F8012240212046FDF7C2FF022085
:103CA00000F0EEF8002240212046FDF7BAFFBDE803
:103CB0001040022000F0E4B8001C02402DE9F04161
:103CC0000024154E074625464FF480786006040E02
:103CD000012240213046FDF7A4FF022000F0D0F879
:103CE00041463046FDF790FF08B1641CE4B2002263
:103CF00040213046FDF795FF022000F0C1F86D1C11
:103D0000EDB2082DE2D327B1FFF764FF2046BDE8EE
:103D1000F081FFF7B5FFF9E7001C02402DE9F04103
:103D2000154E054600244FF48077280601D5012260
:103D300000E0002239463046FDF773FF022000F014
:103D40009FF8012240213046FDF76BFF022000F072
:103D500097F8002240213046FDF763FF6806641C97
:103D6000050EE4B2082CE0D339463046BDE8F041F8
:103D70000122FDF756BF0000001C024070B5012271
:103D80000F4D140221462846FDF74BFF012240212A
:103D90002846FDF746FF022000F072F80022214677
:103DA0002846FDF73EFF022000F06AF8002240217D
:103DB0002846FDF736FFBDE87040022000F060B8ED
:103DC000001C024070B50E4D4FF480740022214655
:103DD0002846FDF726FF022000F052F8012240217C
:103DE0002846FDF71EFF022000F04AF80122214676
:103DF0002846FDF716FFBDE87040022000F040B8ED
:103E0000001C02402DE9F0410122164E0024170249
:103E1000254639463046FDF704FF022000F030F811
:103E2000012240213046FDF7FCFE07E0641CE4B2AD
:103E3000FA2C03D9FFF7C6FF012508E0022000F0A5
:103E40001FF839463046FDF7DFFE0028EED100228C
:103E500040213046FDF7E5FE022000F011F828462B
:103E6000BDE8F081001C0240014908607047000075
:103E7000100000204FF47A71484300F001B80000B0
:103E800070B54FF0E024002265690949A36909680B
:103E90004843A1699942FCD002D2A3EB010302E09E
:103EA000A5EB010633441A440B468242F1D370BDA0
:103EB000100000207CB504460E468079217A154614
:103EC000C0F38100062904D1217B11B1607B00F091
:103ED0000300A0B1012814D0022814D0032814D064
:103EE0000BA16846FCF7F2FB0621204606F089FD8F
:103EF00003466A462946304604F08EFD7CBD06A185
:103F0000EFE707A1EDE708A1EBE709A1E9E700006A
:103F10003F3F3F3F3F0000003130562F560000002A
:103F20003230562F560000003430562F5600000015
:103F30003830562F560000007CB504460E460079F6
:103F4000217A154600F00300012902D1217B01B13D
:103F5000607B90B1012812D0022812D00AA16846D5
:103F6000FCF7B4FB0121204606F04BFD03466A46F0
:103F70002946304604F050FD7CBD05A1EFE706A1BF
:103F8000EDE707A1EBE700004552522020000000BA
:103F9000312E374120000000302E37412000000034
:103FA000302E3235410000007CB504460E461546E1
:103FB0000079E1880422C0F3011002EA11110843DC
:103FC000217A032902D1217B01B1607B05280ED221
:103FD000DFE800F0030507090B000CA108E00DA1C4
:103FE00006E00EA104E00FA102E010A100E01149DB
:103FF0006846FCF76BFB0321204606F002FD0346F2
:104000006A462946304604F007FD7CBD4342432002
:10401000200000006C617463680000005265706FDE
:104020007200000044697361620000006F666620E0
:1040300020000000883F00087CB504460E468079C9
:10404000217A154600F00300052904D1217B11B126
:10405000607B00F0030090B1012812D0022812D03A
:104060000AA16846FCF732FB0521204606F0C9FC90
:1040700003466A462946304604F0CEFC7CBD04A1C6
:10408000EFE704A1EDE704A1EBE700004552520081
:104090004F2643004F5420004F432000002101725F
:1040A000017370472DE9FF4F87B0044609984FF020
:1040B000000B01EB0009DD48CDF80CB0CDF810B0D5
:1040C00040881FFA89F7801E0E461D46B84200D26E
:1040D00087B2FDF7B1FDDFF858A3DAF820209AF88F
:1040E0000110801A21B99AF8001009B1782806D376
:1040F000204600F045FA6188208805F0E3FC9AF834
:10410000020000287ED02188BAF80C205046914247
:1041100024D16188C289914220D1A188028A91422A
:104120001CD1E188428A914218D1217AC278914209
:1041300014D1217B0279914210D1617B4279914265
:104140000CD1BB4916310A7842B9497831B9B8491E
:1041500018310A7812B9497800297DD0D1469AF8E9
:10416000030005F0BBFB8046207A05F0B7FB07464D
:1041700099F8030005F033FC8346207A05F02FFC04
:1041800002462188B9F80C00814205D09DF80C0048
:1041900040F001008DF80C006088B9F80E304946F7
:1041A000984205D09DF80C0040F002008DF80C00FC
:1041B000A0880B8A98420BD09DF80D0040F00300B8
:1041C0008DF80D009DF80E0040F003008DF80E00F4
:1041D000E0884B8A984211D09DF80E0040F0010013
:1041E0008DF80E009DF80F0040F003008DF80F00D1
:1041F0009DF8100040F003008DF81000A8F10103B5
:1042000003A800E007E0032B71D810F808C0BBF149
:10421000000368D166E0B74209D94FF6FF700090FD
:10422000A81E82B23B463146012003F0BDFD09982D
:10423000059068080190A9F1010080B20127A5F15D
:1042400002080290FAB23046059905F09EFB01463D
:104250001FFA88F20B4600E0E4E00120CDF800B040
:1042600001F006F97F1CBFB2042FEBD9CDF800B0E6
:10427000DDE901233146104601F0FAF803272B4609
:10428000009731462046099A04F006FE2B46009717
:1042900031462046099A04F01FFF2B46009731460D
:1042A0002046099A04F0D6FF2B4600973146204657
:1042B000099A05F097F82B46009731462046099A4F
:1042C00005F032F940F2CF125AA10C208DE8070018
:1042D000A9F10E00103D81B2AAB20E23082004F00D
:1042E000FFF887E003234CEA030C00F808C07B1EAC
:1042F000032B08D8C35D0AB1944601E04FF0030CCC
:1043000043EA0C03C355237B63B1637B99F8051023
:104310008B4207D037B1042F04D8C15D02B9032204
:104320001143C15542481630017809B9407828B187
:104330009DF80C0040F003008DF80C009DF80C0077
:1043400030B100902B4631462046099A04F0A4FD76
:104350009DF80D0030B100902B4631462046099A59
:1043600004F0BAFE9DF80E0030B100902B463146A5
:104370002046099A04F06EFF9DF80F0030B10090BE
:104380002B4631462046099A05F02CF89DF810007E
:1043900030B100902B4631462046099A05F0C4F80A
:1043A0009DF80C0030BB224F1837387808B9787860
:1043B00000B300223046099905F0E7FA8146002152
:1043C000099805F0A1FA8046194E38781A3638B1A6
:1043D0003078009000232A464146484604F0FCFC11
:1043E000787838B17078009001232A4641464846D3
:1043F00004F0F2FC2188AAF80C106188AAF80E10CB
:10440000A188AAF81010E188AAF81210217A8AF877
:104410000310217B8AF80410617B8AF805100121C2
:104420008AF802100BB0BDE8F08F000054020020A3
:10443000340000204B4559533D53504920546F756B
:1044400063683D6D6F746F72000000002DE9F05FCE
:10445000DFF8ACA000240126CAF820408AF800400A
:104460008AF801608AF8024025468AF805404FF430
:10447000D8712448FCF76DF9DFF888B0A846B1463A
:1044800004EBC40101EB410100250BEBC10700BFA8
:1044900005EB450007EBC0061BA13046FCF716F9FB
:1044A0006D1CA6F81480EDB286F81690092DEFD396
:1044B0001349143101F804801031A1F10E0241F8C2
:1044C00024800C3902F8049001F80480891C01F85A
:1044D0000480641C022CD3D38AF80680AAF81C80BE
:1044E000AAF81E808AF807808AF80880FF218AF8D7
:1044F00009108AF80A10BDE8F05FFDF78DB90000D9
:1045000034000020CA0200204E4F5F455252000086
:10451000017A11B9007B002800D00120704700000B
:1045200070B50446007A002826D0207B012905D0EA
:1045300008B3032918D002291AD01CE0012558B16C
:104540002046FFF75CF82046FDF791F90B484570CF
:104550000020207320720EE02573204600F010F832
:10456000204604F06FF806E0204600F069FE02E005
:10457000204600F0B9FD012070BD0000340000208D
:1045800010B5FDF759F9FDF757FB03490862012003
:1045900008700020487010BD340000202DE9FF5F36
:1045A0001F46DDF838A08B460646BA4218D3D01B0A
:1045B00085B2554514D200242146504605F0A4F991
:1045C000854207D2002C0BD00F99BBEB510F09D3BA
:1045D000012008E0281A641CE4B285B2052CEBD354
:1045E000BDE8FF9F00204FF000094FF00108C8B15F
:1045F000012C27D0022C27D0032C27D0042CEFD15C
:10460000082503A90094CDE90101524639465846D0
:104610000F9B05F0FAF90028307A2BD0A84217D06A
:10462000357217E0012C07D0022C07D0032C07D0DD
:10463000042CD5D10725E4E74546E2E70325E0E76A
:104640000625DEE70225DCE70425DAE70525D8E7BD
:10465000307B20B986F80C80304603F0F3FF9DF8DC
:104660000C000028304602D000F0EAFD14E000F013
:104670003BFD11E0A84203D0357286F80C900BE0A8
:10468000307B48B13046FEF7BAFF3046FDF7EFF811
:1046900086F80C9086F80890014880F801809FE722
:1046A0003400002003490A685206FCD5C2B24A60B1
:1046B0007047000000100140F0B53B4887B000256E
:1046C000016841F040010160016801F0400106917C
:1046D000016841F0800101600068012400F0800061
:1046E00006900220CDE901040326304FCDE90346B0
:1046F00001A93846FDF792F98020CDE90105CDE901
:10470000034601A92A48FDF789F9FFF78BFA002231
:1047100002213846FDF785FA1420FFF7ABFB012292
:1047200002213846FDF77DFA3220FFF7A3FB8DF812
:10473000005001226946002000F012F9012269466A
:10474000A42000F00DF916208DF800000122694622
:10475000802000F005F90C208DF800000122694648
:10476000882000F0FDF802226946A12000F028F818
:104770009DF80010302903D19DF8010003280AD0CC
:104780009DF80100012806D0022804D001B910B11B
:10479000012007B0F0BDC0B200EB012105A0FBF77E
:1047A000F9FD0020F5E70000303802400018024013
:1047B000001C02404354502049443A25780D0A0019
:1047C0002DE9F04115460E460446FFF7D7FA702052
:1047D000FFF7A4FAFFF716FBE0B2FFF79FFAFFF727
:1047E00011FBFFF7CBFA7120FFF798FAFFF70AFBEE
:1047F00000246F1E09E0BC4201D0012000E000202F
:10480000FFF75CFA3055641CE4B2AC42F3D3BDE868
:10481000F041FFF7D7BA00002DE9FC5F00274C4EAE
:104820008DF804704FF00A0B30783C46401CC0B243
:10483000B0FBFBF20BFB1201B946307009B10A283C
:104840007ED2012201A90220FFF7BAFF9DF80400E1
:10485000DFF8008101074FF6FF7A5DD000F00F010D
:10486000062959D20AFA01F0C04340F44040A8F8A2
:10487000340045460420FFF7FDFA4FF00109A98EE8
:1048800009FA04F001423AD033480422694630F86C
:104890001400FFF795FF95F844009DF80010C0073D
:1048A0009DF8010001F00F010ED000EB012105EB96
:1048B000440001849DF802209DF8031002F00F02CD
:1048C00001EB0221818110E000EB012023490988DE
:1048D000091A05EB440081819DF802209DF8031020
:1048E00002F00F0201EB022101849DF80000082173
:1048F000B1EB101F03D005EB440007848781641CD3
:10490000E4B2052CBBD3A8894FF0010918B9288C53
:1049100008B98DF8047037709DF80400C0060FD1F7
:10492000B8F83400010403D520F4004006E007E0A5
:10493000A8F80CA0A8F820A000F46040A8F8340063
:104940003078F02801D986F800B04846BDE8FC9FD1
:10495000600000206400002078E20008540200207B
:104960002DE9F04116460F4604460025FFF706FAEA
:104970007020FFF7D3F9FFF745FAE0B2FFF7CEF961
:10498000FFF740FA002408E0385DFFF7C7F9FFF7AA
:1049900039FA050003D1641CE4B2B442F4D3FFF742
:1049A00011FA2846BDE8F0812DE9F043444889B06A
:1049B0000024016841F040010160016801F04001FC
:1049C0000791016841F0800101600068012500F055
:1049D0008000079002270326CDE90075DFF8E490F8
:1049E000CDE9025669464846FDF718F84FF08008B1
:1049F00001A8CDF8008080E87000334D6946284654
:104A0000FDF70CF8FFF70EF9002202214846FDF7EA
:104A100008F90A20FFF72EFA012202214846FDF785
:104A200000F90A20FFF726FACDE90084CDE9024615
:104A300069462846FCF7F2FF6420FFF71BFA0422C0
:104A400005A948F2401000F057F88DF818401FA152
:104A500005A8FBF7CBFE90B11DA105A8FBF7C6FE8C
:104A600068B11DA105A8FBF7C1FE40B11CA105A8B6
:104A7000FBF7BCFE18B1012009B0BDE8F08305A921
:104A800019A0FBF787FC16A105A8FBF7AFFE10B92C
:104A900018490A20087048F240058DF81470012268
:104AA00005A9284600F04AF90A20FFF7E3F98DF836
:104AB0001440012205A9284600F040F90020DBE758
:104AC0003038024000180240001C024039313100E9
:104AD0003931343700000000313135380000000032
:104AE00039323731000000004354502049443A2500
:104AF000730D0A00610000202DE9F04115460E46B5
:104B00000446FFF73BF92820FFF708F9FFF77AF989
:104B1000200AFFF703F9FFF775F9E0B2FFF7FEF897
:104B2000FFF770F9FFF72AF92920FFF7F7F8FFF7E9
:104B300069F900246F1E09E0BC4201D0012000E0A9
:104B40000020FFF7BBF83055641CE4B2AC42F3D34D
:104B5000BDE8F041FFF736B92DE9F14F82B00025ED
:104B6000724C8DF804504FF00A0A6078DFF8C0816B
:104B7000401CC0B2B0FBFAF20AFB12012E46607074
:104B80004FF6FF7909B10A287DD248F24E1701226B
:104B900002A93846FFF7B0FF9DF8080001060BD5C3
:104BA000217800F00F00884206D88DF804500122C9
:104BB00001A9384600F0C2F89DF80800010762D04C
:104BC000227800F00F0090425DD809FA00F1C94345
:104BD000B8F8347041F44041A8F8341008EB4201B1
:104BE000B8F80C304B81B8F82020CA838DF80450F7
:104BF000DFF840B150E0B8F8340001228A40464660
:104C0000104244D04C48042230F811006946FFF7A6
:104C100073FFBBF80410A1F5AA42103A0CD0A1F51D
:104C20001842063A08D0A1F5EE42963A04D096F81A
:104C30004410C90717D103E096F84410C90712D0F1
:104C40009DF802109DF80320BBF8000001EB022143
:104C5000411A9DF8040006EB400081819DF8001088
:104C60009DF801200EE09DF800009DF8011000EB7A
:104C700001219DF8040006EB400081819DF802109F
:104C80009DF8032000E025E001EB022101849DF85E
:104C90000400401C8DF804009DF804102078814227
:104CA000A9D3B8F80C20BBF80030012640469A4240
:104CB00004D8028CBBF802108A420AD99DF8081069
:104CC00001F00F0101290CD9C1898181418CA8F81B
:104CD000201065709DF8080000F08F0080280DD02E
:104CE0001CE0217800EB41014A898281C98B018453
:104CF00080218DF80810A8F83470EBE7B8F834106C
:104D000040460A0402D521F4004105E0A0F80C90C9
:104D1000A0F8209001F46041A8F834106078F028E1
:104D200001D984F801A03046BDE8FE8F6100002063
:104D3000640000205402002082E200082DE9F041C6
:104D400016460F4604460025FFF718F82820FEF700
:104D5000E5FFFFF757F8200AFEF7E0FFFFF752F8EC
:104D6000E0B2FEF7DBFFFFF74DF8002408E0385D06
:104D7000FEF7D4FFFFF746F8050003D1641CE4B248
:104D8000B442F4D3FFF71EF82846BDE8F0810000D6
:104D90001A4810B5026886B0002142F08002026015
:104DA000026802F080020592026842F0040202608A
:104DB000026802F004020592026842F004020260F6
:104DC000006800F0040005904FF48060CDE9000118
:104DD0000120029069460A48FCF720FE8020094C19
:104DE000009069462046FCF719FE40200090694675
:104DF0002046FCF713FE06B010BD0000303802401C
:104E0000001C02400008024070B5144C002565608B
:104E1000012821D181021248FCF7F6FE18B1606822
:104E200040F0010060600F4E80213046FCF7ECFE40
:104E300018B1606840F00200606040213046FCF725
:104E4000E3FE0649083130B1606840F0040060605C
:104E50000120C87000E0CD70606870BDB000002017
:104E6000001C02400008024010B5114C0022202115
:104E70002046FCF7D6FE0220FFF702F8012210219F
:104E80002046FCF7CEFE0220FEF7FAFF002210219A
:104E90002046FCF7C6FE0220FEF7F2FF0122202189
:104EA0002046FCF7BEFEBDE810400220FEF7E8BF3A
:104EB000001C0240154810B5016886B041F0800121
:104EC0000160016801F080010591016841F08001F5
:104ED000016000680E4C00F08000059010200090EA
:104EE0000120019002900320039069462046FCF7C0
:104EF00095FD202000901120019069462046FCF786
:104F00008DFD00F0A3F806B010BD0000303802405F
:104F1000001C024010B50D4C012220212046FCF758
:104F200080FE0220FEF7ACFF012210212046FCF794
:104F300078FE0220FEF7A4FF002210212046FCF795
:104F400070FEBDE810400220FEF79ABF001C024030
:104F50002DE9F0410024144E074625466006040E54
:104F6000012210213046FCF75CFE0220FEF788FF8C
:104F700020213046FCF748FE08B1641CE4B2002250
:104F800010213046FCF74DFE0220FEF779FF6D1C24
:104F9000EDB2082DE2D327B1FFF766FF2046BDE84A
:104FA000F081FFF7B7FFF9E7001C024070B5144E1F
:104FB00005460024280601D5012200E00022202118
:104FC0003046FCF72EFE0220FEF75AFF0122102188
:104FD0003046FCF726FE0220FEF752FF0022102189
:104FE0003046FCF71EFE6806641C050EE4B2082C71
:104FF000E0D33046BDE8704001222021FCF711BE0D
:10500000001C024010B5104C012220212046FCF764
:1050100008FE012210212046FCF703FE0220FEF7C5
:105020002FFF002220212046FCF7FBFD0220FEF787
:1050300027FF002210212046FCF7F3FDBDE81040B9
:105040000220FEF71DBF0000001C024010B50D4CF1
:10505000002220212046FCF7E4FD0220FEF710FF8D
:10506000012210212046FCF7DCFD0220FEF708FF9C
:10507000012220212046FCF7D4FDBDE8104002208B
:10508000FEF7FEBE001C024070B5164E00242546F9
:10509000012220213046FCF7C4FD0220FEF7F0FE7D
:1050A000012210213046FCF7BCFD0220FEF7E8FE8D
:1050B00007E0641CE4B2FA2C03D9FFF7C7FF01250F
:1050C00005E020213046FCF79FFD0028F1D10022A9
:1050D00010213046FCF7A5FD0220FEF7D1FE284640
:1050E00070BD0000001C0240017A0222092907D28B
:1050F000DFE801F006111A090D11141A1A004173A4
:10510000704742737047417B51B90421F7E7417BF7
:1051100031B91F21F3E7417B11B9F2E7417B09B1B6
:10512000491EECE70321EAE7417B81F00101E6E754
:10513000F0B51A4887B00024016841F01001016001
:10514000016801F010010591016841F01001016052
:10515000016801F010010591016841F01001016042
:105160000068012500F010000590042002268DE85B
:1051700071000B4F69463846FCF750FC08208DE85B
:10518000710069463846FCF749FC10208DE8710033
:1051900069463846FCF742FC07B0F0BD30380240A3
:1051A000001002402DE9F0410025234E234C012739
:1051B00008B1377001E0307870B104212046FCF767
:1051C00023FD80B108212046FCF71EFD58B11021B7
:1051D0002046FCF719FD30B104212046FCF714FDF0
:1051E000012818D024E00A20FEF744FE0020307089
:1051F00004212046FCF708FD00B9012508212046BE
:10520000FCF702FD00B9022510212046FCF7FCFC4A
:1052100070B903250CE008212046FCF7F5FC0128B5
:1052200006D110212046FCF7EFFC012800D1377091
:105230002846BDE8F08100002C000020001002404C
:10524000027A0021092A08D2DFE802F007121D0ABB
:105250000E12161D1D00521C427370474173704799
:10526000427B042AFAD2F6E7427B1F2AF6D2F2E703
:10527000427B022AF2D2EEE7417B032901D2491C8C
:10528000ECE70221EAE7417B81F00101E6E700005B
:1052900070B509490646002408884D8821464543D3
:1052A000204603F035F803F087F9044801E0068052
:1052B000641CAC42FBD370BD540200200008006C9B
:1052C0002DE9F04F38492C260A46887192884FF410
:1052D000305A4FF4285B41F6631E2B274FF02A0CFF
:1052E0004FF0F00845F210594FF448754FF4A07490
:1052F0004FF4F07358B10C80A1F802804A4530D1C8
:10530000A1F808A0A1F80AB03802888141E0A1F80C
:1053100000804C804A4507D1A1F808A0A1F80AB046
:105320004FF42C50888105E072450E8105D14F81E4
:10533000A1F80CC00B804D8002E0A1F80AC08F815B
:10534000A2F5A640103803D0A2F5EE40963801D160
:105350000C804B80A2F5184006381FD10B804D8081
:105360001CE0724511D0A2F5184006380DD00E8110
:10537000A1F80AC0A1F80C70A2F5A64010380BD015
:10538000A2F5EE40963807D008E00E81A1F80AC0D9
:105390008F810D804B80EFE70B804C80BDE8F04F94
:1053A000002002F0F3BE0000540200202DE9FF4F60
:1053B000804600251446032082B00F46A0EB440629
:1053C00051E0381B81B208EB050A01901FFA8AF000
:1053D000059A00F09BF8781B009081B208EB040955
:1053E0001FFA89F0059A00F091F807EB050B1FFAF8
:1053F0008BF11FFA89F0059A00F088F807EB040991
:105400001FFA89F11FFA8AF0059A00F07FF8A8EBDD
:10541000050A1FFA89F11FFA8AF0059A00F076F85A
:10542000A8EB04091FFA8BF11FFA89F0059A00F026
:105430006DF80198059A81B21FFA8AF000F066F8BB
:105440000098059A81B21FFA89F000F05FF86D1C90
:10545000002E03DA06EB8506B61D04E0281B06EBDA
:105460008006641E0A36A542ABDD06B0BDE8F08FAB
:105470002DE9FE4F161ACDE900104FF000085D1A15
:1054800047464FF0FF30002E02DD4FF0010102E0F1
:1054900003D14FF000018B4602E08346C6F10006BF
:1054A000002D02DD4FF0010002E003D14FF00000BB
:1054B000824602E08246C5F10005AE4201DD344677
:1054C00000E02C46601C4FF00009029019E00098A3
:1054D0000C9A81B2019880B200F018F8B0442F44C1
:1054E000A04504DD0198A8EB040858440190A742A8
:1054F00003DD00983F1B5044009009F101001FFAA2
:1055000080F902998945E2DDBDE8FE8F10B51446A9
:1055100002F0FEFE03F050F80148048010BD0000C8
:105520000008006C2DE9F8411D46079C1646884688
:1055300007460B460094FFF79BFF3A462B46414631
:1055400010460094FFF794FF2B4632461946384622
:105550000094FFF78DFF32462B46414610460094DB
:10556000FFF786FFBDE8F88110B5CF2003F018F8EB
:10557000002003F009F8C12003F006F8302003F002
:1055800003F8ED2003F00CF8642002F0FDFF032087
:1055900002F0FAFF122002F0F7FF812002F0F4FF80
:1055A000E82002F0FDFF852002F0EEFF102002F05F
:1055B000EBFF7A2002F0E8FFCB2002F0F1FF392068
:1055C00002F0E2FF2C2002F0DFFF002002F0DCFFFF
:1055D000342002F0D9FF022002F0D6FFF72002F0BB
:1055E000DFFF202002F0D0FFEA2002F0D9FF0020E8
:1055F00002F0CAFF002002F0C7FFC02002F0D0FF77
:105600001B2002F0C1FFC12002F0CAFF012002F0FE
:10561000BBFFC52002F0C4FF302002F0B5FF3020F0
:1056200002F0B2FFC72002F0BBFFB72002F0ACFFD0
:10563000362002F0B5FF482002F0A6FF3A2002F023
:10564000AFFF552002F0A0FFB12002F0A9FF00201B
:1056500002F09AFF1A2002F097FFB62002F0A0FF96
:105660000A2002F091FFA22002F08EFFF22002F049
:1056700097FF002002F088FF262002F091FF012012
:1056800002F082FFE02002F08BFF0F2002F07CFF8F
:105690002A2002F079FF282002F076FF082002F08D
:1056A00073FF0E2002F070FF082002F06DFF5420FF
:1056B00002F06AFFA92002F067FF432002F064FFB6
:1056C0000A2002F061FF0F2002F05EFF002002F0CE
:1056D0005BFF002002F058FF002002F055FF002081
:1056E00002F052FFE12002F05BFF002002F04CFFCD
:1056F000152002F049FF172002F046FF072002F0B4
:1057000043FF112002F040FF062002F03DFF2B2056
:1057100002F03AFF562002F037FF3C2002F034FF3F
:10572000052002F031FF102002F02EFF0F2002F0C2
:105730002BFF3F2002F028FF3F2002F025FF0F2023
:1057400002F022FF2B2002F02BFF002002F01CFFB2
:10575000002002F019FF012002F016FF3F2002F0A6
:1057600013FF2A2002F01CFF002002F00DFF002092
:1057700002F00AFF002002F007FFEF2002F004FF12
:10578000112002F00DFF7820FEF774FBBDE81040F9
:10579000292002F005BF10B5FF2002F001FFFF2015
:1057A00002F0F2FE982002F0EFFE062002F0ECFE7E
:1057B000BC2002F0F5FE012002F0E6FE0F2002F010
:1057C000E3FE612002F0E0FEFF2002F0DDFE01209A
:1057D00002F0DAFE012002F0D7FE0B2002F0D4FE28
:1057E000102002F0D1FE372002F0CEFE632002F03E
:1057F000CBFEFF2002F0C8FEFF2002F0C5FE012014
:1058000002F0C2FE012002F0BFFE002002F0BCFE4A
:10581000002002F0B9FEFF2002F0B6FE522002F096
:10582000B3FE012002F0B0FE002002F0ADFE4020E9
:1058300002F0AAFEBD2002F0B3FE012002F0A4FE99
:10584000232002F0A1FE452002F09EFE672002F018
:105850009BFE012002F098FE232002F095FE4520D9
:1058600002F092FE672002F08FFEBE2002F098FE4A
:10587000002002F089FE012002F086FEAB2002F03B
:1058800083FE602002F080FE222002F07DFE2220B6
:1058900002F07AFE222002F077FE222002F074FE4F
:1058A000222002F071FEC72002F07AFE362002F0BC
:1058B0006BFEED2002F074FE7F2002F065FE0F20EB
:1058C00002F062FEC02002F06BFE0F2002F05CFED0
:1058D0000B2002F059FE0A2002F056FEFC2002F0D6
:1058E0005FFE082002F050FEDF2002F059FE00208B
:1058F00002F04AFE002002F047FE002002F044FEC3
:10590000002002F041FE002002F03EFE202002F0C6
:105910003BFEF32002F044FE742002F035FEB4207A
:1059200002F03EFE002002F02FFE002002F02CFECE
:10593000002002F029FEF72002F032FE822002F061
:1059400023FEB12002F02CFE002002F01DFE1320E9
:1059500002F01AFE132002F017FEF22002F020FEE1
:10596000802002F011FE042002F00EFE402002F022
:105970000BFE282002F008FEC12002F011FE1720C5
:1059800002F002FE882002F0FFFD882002F0FCFDFC
:10599000202002F0F9FDE02002F002FE002002F0DB
:1059A000F3FD0A2002F0F0FD122002F0EDFD1020C0
:1059B00002F0EAFD0E2002F0E7FD202002F0E4FDF7
:1059C000CC2002F0E1FD072002F0DEFD062002F00F
:1059D000DBFD0B2002F0D8FD0E2002F0D5FD0F20DC
:1059E00002F0D2FD0D2002F0CFFD152002F0CCFD1B
:1059F000102002F0C9FD002002F0C6FDE12002F0F7
:105A0000CFFD002002F0C0FD0B2002F0BDFD1320F1
:105A100002F0BAFD0D2002F0B7FD0E2002F0B4FD39
:105A20001B2002F0B1FD712002F0AEFD062002F055
:105A3000ABFD062002F0A8FD0A2002F0A5FD0F2014
:105A400002F0A2FD0E2002F09FFD0F2002F09CFD4F
:105A5000152002F099FD0C2002F096FD002002F0C6
:105A600093FD2A2002F09CFD002002F08DFD002015
:105A700002F08AFD012002F087FDDF2002F084FDA4
:105A80002B2002F08DFD002002F07EFD002002F0B0
:105A90007BFD032002F078FD1F2002F075FD3A2007
:105AA00002F07EFD552002F06FFD362002F078FDF9
:105AB000002002F069FD112002F072FD7820FEF74F
:105AC000D9F9292002F06CFD1420FEF7D3F9BDE8C6
:105AD00010402C2002F064BD10B5ED2002F060FDF6
